{
	"contracts/ProductSupplyChain.sol": {
		"ProductSupplyChain": {
			"abi": [
				{
					"inputs": [
						{
							"internalType": "address",
							"name": "owner",
							"type": "address"
						}
					],
					"name": "OwnableInvalidOwner",
					"type": "error"
				},
				{
					"inputs": [
						{
							"internalType": "address",
							"name": "account",
							"type": "address"
						}
					],
					"name": "OwnableUnauthorizedAccount",
					"type": "error"
				},
				{
					"anonymous": false,
					"inputs": [
						{
							"indexed": true,
							"internalType": "address",
							"name": "previousOwner",
							"type": "address"
						},
						{
							"indexed": true,
							"internalType": "address",
							"name": "newOwner",
							"type": "address"
						}
					],
					"name": "OwnershipTransferred",
					"type": "event"
				},
				{
					"anonymous": false,
					"inputs": [
						{
							"indexed": false,
							"internalType": "uint256",
							"name": "productId",
							"type": "uint256"
						},
						{
							"indexed": false,
							"internalType": "string",
							"name": "name",
							"type": "string"
						},
						{
							"indexed": false,
							"internalType": "address",
							"name": "owner",
							"type": "address"
						}
					],
					"name": "ProductCreated",
					"type": "event"
				},
				{
					"anonymous": false,
					"inputs": [
						{
							"indexed": false,
							"internalType": "uint256",
							"name": "productId",
							"type": "uint256"
						},
						{
							"indexed": false,
							"internalType": "address",
							"name": "buyer",
							"type": "address"
						}
					],
					"name": "ProductSold",
					"type": "event"
				},
				{
					"inputs": [
						{
							"internalType": "uint256",
							"name": "_productId",
							"type": "uint256"
						},
						{
							"internalType": "string",
							"name": "_name",
							"type": "string"
						},
						{
							"internalType": "uint256",
							"name": "_price",
							"type": "uint256"
						},
						{
							"internalType": "string",
							"name": "_state",
							"type": "string"
						}
					],
					"name": "createProduct",
					"outputs": [],
					"stateMutability": "nonpayable",
					"type": "function"
				},
				{
					"inputs": [],
					"name": "owner",
					"outputs": [
						{
							"internalType": "address",
							"name": "",
							"type": "address"
						}
					],
					"stateMutability": "view",
					"type": "function"
				},
				{
					"inputs": [
						{
							"internalType": "uint256",
							"name": "",
							"type": "uint256"
						}
					],
					"name": "products",
					"outputs": [
						{
							"internalType": "uint256",
							"name": "productId",
							"type": "uint256"
						},
						{
							"internalType": "string",
							"name": "name",
							"type": "string"
						},
						{
							"internalType": "address",
							"name": "currentOwner",
							"type": "address"
						},
						{
							"internalType": "uint256",
							"name": "price",
							"type": "uint256"
						},
						{
							"internalType": "string",
							"name": "state",
							"type": "string"
						}
					],
					"stateMutability": "view",
					"type": "function"
				},
				{
					"inputs": [],
					"name": "registryAddress",
					"outputs": [
						{
							"internalType": "address",
							"name": "",
							"type": "address"
						}
					],
					"stateMutability": "view",
					"type": "function"
				},
				{
					"inputs": [],
					"name": "renounceOwnership",
					"outputs": [],
					"stateMutability": "nonpayable",
					"type": "function"
				},
				{
					"inputs": [
						{
							"internalType": "uint256",
							"name": "_productId",
							"type": "uint256"
						},
						{
							"internalType": "address",
							"name": "_buyer",
							"type": "address"
						}
					],
					"name": "sellProduct",
					"outputs": [],
					"stateMutability": "nonpayable",
					"type": "function"
				},
				{
					"inputs": [
						{
							"internalType": "address",
							"name": "newOwner",
							"type": "address"
						}
					],
					"name": "transferOwnership",
					"outputs": [],
					"stateMutability": "nonpayable",
					"type": "function"
				}
			],
			"devdoc": {
				"errors": {
					"OwnableInvalidOwner(address)": [
						{
							"details": "The owner is not a valid owner account. (eg. `address(0)`)"
						}
					],
					"OwnableUnauthorizedAccount(address)": [
						{
							"details": "The caller account is not authorized to perform an operation."
						}
					]
				},
				"kind": "dev",
				"methods": {
					"owner()": {
						"details": "Returns the address of the current owner."
					},
					"renounceOwnership()": {
						"details": "Leaves the contract without owner. It will not be possible to call `onlyOwner` functions. Can only be called by the current owner. NOTE: Renouncing ownership will leave the contract without an owner, thereby disabling any functionality that is only available to the owner."
					},
					"transferOwnership(address)": {
						"details": "Transfers ownership of the contract to a new account (`newOwner`). Can only be called by the current owner."
					}
				},
				"version": 1
			},
			"evm": {
				"assembly": "    /* \"contracts/ProductSupplyChain.sol\":172:2352  contract ProductSupplyChain is Ownable(msg.sender) {... */\n  mstore(0x40, 0x80)\n  callvalue\n  dup1\n  iszero\n  tag_1\n  jumpi\n  0x00\n  dup1\n  revert\ntag_1:\n  pop\n    /* \"contracts/ProductSupplyChain.sol\":211:221  msg.sender */\n  caller\n    /* \"@openzeppelin/contracts/access/Ownable.sol\":1297:1298  0 */\n  0x00\n    /* \"@openzeppelin/contracts/access/Ownable.sol\":1273:1299  initialOwner == address(0) */\n  0xffffffffffffffffffffffffffffffffffffffff\n  and\n    /* \"@openzeppelin/contracts/access/Ownable.sol\":1273:1285  initialOwner */\n  dup2\n    /* \"@openzeppelin/contracts/access/Ownable.sol\":1273:1299  initialOwner == address(0) */\n  0xffffffffffffffffffffffffffffffffffffffff\n  and\n  sub\n    /* \"@openzeppelin/contracts/access/Ownable.sol\":1269:1364  if (initialOwner == address(0)) {... */\n  tag_4\n  jumpi\n    /* \"@openzeppelin/contracts/access/Ownable.sol\":1350:1351  0 */\n  0x00\n    /* \"@openzeppelin/contracts/access/Ownable.sol\":1322:1353  OwnableInvalidOwner(address(0)) */\n  mload(0x40)\n  0x1e4fbdf700000000000000000000000000000000000000000000000000000000\n  dup2\n  mstore\n  0x04\n  add\n  tag_5\n  swap2\n  swap1\n  tag_6\n  jump\t// in\ntag_5:\n  mload(0x40)\n  dup1\n  swap2\n  sub\n  swap1\n  revert\n    /* \"@openzeppelin/contracts/access/Ownable.sol\":1269:1364  if (initialOwner == address(0)) {... */\ntag_4:\n    /* \"@openzeppelin/contracts/access/Ownable.sol\":1373:1405  _transferOwnership(initialOwner) */\n  tag_7\n    /* \"@openzeppelin/contracts/access/Ownable.sol\":1392:1404  initialOwner */\n  dup2\n    /* \"@openzeppelin/contracts/access/Ownable.sol\":1373:1391  _transferOwnership */\n  shl(0x20, tag_8)\n    /* \"@openzeppelin/contracts/access/Ownable.sol\":1373:1405  _transferOwnership(initialOwner) */\n  0x20\n  shr\n  jump\t// in\ntag_7:\n    /* \"@openzeppelin/contracts/access/Ownable.sol\":1225:1412  constructor(address initialOwner) {... */\n  pop\n    /* \"contracts/ProductSupplyChain.sol\":172:2352  contract ProductSupplyChain is Ownable(msg.sender) {... */\n  jump(tag_9)\n    /* \"@openzeppelin/contracts/access/Ownable.sol\":2912:3099  function _transferOwnership(address newOwner) internal virtual {... */\ntag_8:\n    /* \"@openzeppelin/contracts/access/Ownable.sol\":2985:3001  address oldOwner */\n  0x00\n    /* \"@openzeppelin/contracts/access/Ownable.sol\":3004:3010  _owner */\n  dup1\n  0x00\n  swap1\n  sload\n  swap1\n  0x0100\n  exp\n  swap1\n  div\n  0xffffffffffffffffffffffffffffffffffffffff\n  and\n    /* \"@openzeppelin/contracts/access/Ownable.sol\":2985:3010  address oldOwner = _owner */\n  swap1\n  pop\n    /* \"@openzeppelin/contracts/access/Ownable.sol\":3029:3037  newOwner */\n  dup2\n    /* \"@openzeppelin/contracts/access/Ownable.sol\":3020:3026  _owner */\n  0x00\n  dup1\n    /* \"@openzeppelin/contracts/access/Ownable.sol\":3020:3037  _owner = newOwner */\n  0x0100\n  exp\n  dup2\n  sload\n  dup2\n  0xffffffffffffffffffffffffffffffffffffffff\n  mul\n  not\n  and\n  swap1\n  dup4\n  0xffffffffffffffffffffffffffffffffffffffff\n  and\n  mul\n  or\n  swap1\n  sstore\n  pop\n    /* \"@openzeppelin/contracts/access/Ownable.sol\":3083:3091  newOwner */\n  dup2\n    /* \"@openzeppelin/contracts/access/Ownable.sol\":3052:3092  OwnershipTransferred(oldOwner, newOwner) */\n  0xffffffffffffffffffffffffffffffffffffffff\n  and\n    /* \"@openzeppelin/contracts/access/Ownable.sol\":3073:3081  oldOwner */\n  dup2\n    /* \"@openzeppelin/contracts/access/Ownable.sol\":3052:3092  OwnershipTransferred(oldOwner, newOwner) */\n  0xffffffffffffffffffffffffffffffffffffffff\n  and\n  0x8be0079c531659141344cd1fd0a4f28419497f9722a3daafe3b4186f6b6457e0\n  mload(0x40)\n  mload(0x40)\n  dup1\n  swap2\n  sub\n  swap1\n  log3\n    /* \"@openzeppelin/contracts/access/Ownable.sol\":2975:3099  {... */\n  pop\n    /* \"@openzeppelin/contracts/access/Ownable.sol\":2912:3099  function _transferOwnership(address newOwner) internal virtual {... */\n  pop\n  jump\t// out\n    /* \"#utility.yul\":7:133   */\ntag_11:\n    /* \"#utility.yul\":44:51   */\n  0x00\n    /* \"#utility.yul\":84:126   */\n  0xffffffffffffffffffffffffffffffffffffffff\n    /* \"#utility.yul\":77:82   */\n  dup3\n    /* \"#utility.yul\":73:127   */\n  and\n    /* \"#utility.yul\":62:127   */\n  swap1\n  pop\n    /* \"#utility.yul\":7:133   */\n  swap2\n  swap1\n  pop\n  jump\t// out\n    /* \"#utility.yul\":139:235   */\ntag_12:\n    /* \"#utility.yul\":176:183   */\n  0x00\n    /* \"#utility.yul\":205:229   */\n  tag_17\n    /* \"#utility.yul\":223:228   */\n  dup3\n    /* \"#utility.yul\":205:229   */\n  tag_11\n  jump\t// in\ntag_17:\n    /* \"#utility.yul\":194:229   */\n  swap1\n  pop\n    /* \"#utility.yul\":139:235   */\n  swap2\n  swap1\n  pop\n  jump\t// out\n    /* \"#utility.yul\":241:359   */\ntag_13:\n    /* \"#utility.yul\":328:352   */\n  tag_19\n    /* \"#utility.yul\":346:351   */\n  dup2\n    /* \"#utility.yul\":328:352   */\n  tag_12\n  jump\t// in\ntag_19:\n    /* \"#utility.yul\":323:326   */\n  dup3\n    /* \"#utility.yul\":316:353   */\n  mstore\n    /* \"#utility.yul\":241:359   */\n  pop\n  pop\n  jump\t// out\n    /* \"#utility.yul\":365:587   */\ntag_6:\n    /* \"#utility.yul\":458:462   */\n  0x00\n    /* \"#utility.yul\":496:498   */\n  0x20\n    /* \"#utility.yul\":485:494   */\n  dup3\n    /* \"#utility.yul\":481:499   */\n  add\n    /* \"#utility.yul\":473:499   */\n  swap1\n  pop\n    /* \"#utility.yul\":509:580   */\n  tag_21\n    /* \"#utility.yul\":577:578   */\n  0x00\n    /* \"#utility.yul\":566:575   */\n  dup4\n    /* \"#utility.yul\":562:579   */\n  add\n    /* \"#utility.yul\":553:559   */\n  dup5\n    /* \"#utility.yul\":509:580   */\n  tag_13\n  jump\t// in\ntag_21:\n    /* \"#utility.yul\":365:587   */\n  swap3\n  swap2\n  pop\n  pop\n  jump\t// out\n    /* \"contracts/ProductSupplyChain.sol\":172:2352  contract ProductSupplyChain is Ownable(msg.sender) {... */\ntag_9:\n  dataSize(sub_0)\n  dup1\n  dataOffset(sub_0)\n  0x00\n  codecopy\n  0x00\n  return\nstop\n\nsub_0: assembly {\n        /* \"contracts/ProductSupplyChain.sol\":172:2352  contract ProductSupplyChain is Ownable(msg.sender) {... */\n      mstore(0x40, 0x80)\n      callvalue\n      dup1\n      iszero\n      tag_1\n      jumpi\n      0x00\n      dup1\n      revert\n    tag_1:\n      pop\n      jumpi(tag_2, lt(calldatasize, 0x04))\n      shr(0xe0, calldataload(0x00))\n      dup1\n      0x8da5cb5b\n      gt\n      tag_10\n      jumpi\n      dup1\n      0x8da5cb5b\n      eq\n      tag_6\n      jumpi\n      dup1\n      0xc7595594\n      eq\n      tag_7\n      jumpi\n      dup1\n      0xed9aab51\n      eq\n      tag_8\n      jumpi\n      dup1\n      0xf2fde38b\n      eq\n      tag_9\n      jumpi\n      jump(tag_2)\n    tag_10:\n      dup1\n      0x0b569140\n      eq\n      tag_3\n      jumpi\n      dup1\n      0x715018a6\n      eq\n      tag_4\n      jumpi\n      dup1\n      0x7acc0b20\n      eq\n      tag_5\n      jumpi\n    tag_2:\n      0x00\n      dup1\n      revert\n        /* \"contracts/ProductSupplyChain.sol\":1481:2347  function sellProduct(uint256 _productId, address _buyer) public {... */\n    tag_3:\n      tag_11\n      0x04\n      dup1\n      calldatasize\n      sub\n      dup2\n      add\n      swap1\n      tag_12\n      swap2\n      swap1\n      tag_13\n      jump\t// in\n    tag_12:\n      tag_14\n      jump\t// in\n    tag_11:\n      stop\n        /* \"@openzeppelin/contracts/access/Ownable.sol\":2293:2394  function renounceOwnership() public virtual onlyOwner {... */\n    tag_4:\n      tag_15\n      tag_16\n      jump\t// in\n    tag_15:\n      stop\n        /* \"contracts/ProductSupplyChain.sol\":454:497  mapping(uint256 => Product) public products */\n    tag_5:\n      tag_17\n      0x04\n      dup1\n      calldatasize\n      sub\n      dup2\n      add\n      swap1\n      tag_18\n      swap2\n      swap1\n      tag_19\n      jump\t// in\n    tag_18:\n      tag_20\n      jump\t// in\n    tag_17:\n      mload(0x40)\n      tag_21\n      swap6\n      swap5\n      swap4\n      swap3\n      swap2\n      swap1\n      tag_22\n      jump\t// in\n    tag_21:\n      mload(0x40)\n      dup1\n      swap2\n      sub\n      swap1\n      return\n        /* \"@openzeppelin/contracts/access/Ownable.sol\":1638:1723  function owner() public view virtual returns (address) {... */\n    tag_6:\n      tag_23\n      tag_24\n      jump\t// in\n    tag_23:\n      mload(0x40)\n      tag_25\n      swap2\n      swap1\n      tag_26\n      jump\t// in\n    tag_25:\n      mload(0x40)\n      dup1\n      swap2\n      sub\n      swap1\n      return\n        /* \"contracts/ProductSupplyChain.sol\":771:1399  function createProduct(uint256 _productId, string memory _name, uint256 _price, string memory _state) public onlyOwner {... */\n    tag_7:\n      tag_27\n      0x04\n      dup1\n      calldatasize\n      sub\n      dup2\n      add\n      swap1\n      tag_28\n      swap2\n      swap1\n      tag_29\n      jump\t// in\n    tag_28:\n      tag_30\n      jump\t// in\n    tag_27:\n      stop\n        /* \"contracts/ProductSupplyChain.sol\":1446:1476  address public registryAddress */\n    tag_8:\n      tag_31\n      tag_32\n      jump\t// in\n    tag_31:\n      mload(0x40)\n      tag_33\n      swap2\n      swap1\n      tag_26\n      jump\t// in\n    tag_33:\n      mload(0x40)\n      dup1\n      swap2\n      sub\n      swap1\n      return\n        /* \"@openzeppelin/contracts/access/Ownable.sol\":2543:2758  function transferOwnership(address newOwner) public virtual onlyOwner {... */\n    tag_9:\n      tag_34\n      0x04\n      dup1\n      calldatasize\n      sub\n      dup2\n      add\n      swap1\n      tag_35\n      swap2\n      swap1\n      tag_36\n      jump\t// in\n    tag_35:\n      tag_37\n      jump\t// in\n    tag_34:\n      stop\n        /* \"contracts/ProductSupplyChain.sol\":1481:2347  function sellProduct(uint256 _productId, address _buyer) public {... */\n    tag_14:\n        /* \"contracts/ProductSupplyChain.sol\":1630:1631  0 */\n      0x00\n        /* \"contracts/ProductSupplyChain.sol\":1596:1604  products */\n      0x01\n        /* \"contracts/ProductSupplyChain.sol\":1596:1616  products[_productId] */\n      0x00\n        /* \"contracts/ProductSupplyChain.sol\":1605:1615  _productId */\n      dup5\n        /* \"contracts/ProductSupplyChain.sol\":1596:1616  products[_productId] */\n      dup2\n      mstore\n      0x20\n      add\n      swap1\n      dup2\n      mstore\n      0x20\n      add\n      0x00\n      keccak256\n        /* \"contracts/ProductSupplyChain.sol\":1596:1626  products[_productId].productId */\n      0x00\n      add\n      sload\n        /* \"contracts/ProductSupplyChain.sol\":1596:1631  products[_productId].productId != 0 */\n      sub\n        /* \"contracts/ProductSupplyChain.sol\":1588:1658  require(products[_productId].productId != 0, \"Product does not exist\") */\n      tag_39\n      jumpi\n      mload(0x40)\n      0x08c379a000000000000000000000000000000000000000000000000000000000\n      dup2\n      mstore\n      0x04\n      add\n      tag_40\n      swap1\n      tag_41\n      jump\t// in\n    tag_40:\n      mload(0x40)\n      dup1\n      swap2\n      sub\n      swap1\n      revert\n    tag_39:\n        /* \"contracts/ProductSupplyChain.sol\":1785:1795  msg.sender */\n      caller\n        /* \"contracts/ProductSupplyChain.sol\":1748:1795  products[_productId].currentOwner == msg.sender */\n      0xffffffffffffffffffffffffffffffffffffffff\n      and\n        /* \"contracts/ProductSupplyChain.sol\":1748:1756  products */\n      0x01\n        /* \"contracts/ProductSupplyChain.sol\":1748:1768  products[_productId] */\n      0x00\n        /* \"contracts/ProductSupplyChain.sol\":1757:1767  _productId */\n      dup5\n        /* \"contracts/ProductSupplyChain.sol\":1748:1768  products[_productId] */\n      dup2\n      mstore\n      0x20\n      add\n      swap1\n      dup2\n      mstore\n      0x20\n      add\n      0x00\n      keccak256\n        /* \"contracts/ProductSupplyChain.sol\":1748:1781  products[_productId].currentOwner */\n      0x02\n      add\n      0x00\n      swap1\n      sload\n      swap1\n      0x0100\n      exp\n      swap1\n      div\n      0xffffffffffffffffffffffffffffffffffffffff\n      and\n        /* \"contracts/ProductSupplyChain.sol\":1748:1795  products[_productId].currentOwner == msg.sender */\n      0xffffffffffffffffffffffffffffffffffffffff\n      and\n      eq\n        /* \"contracts/ProductSupplyChain.sol\":1740:1843  require(products[_productId].currentOwner == msg.sender, \"Only the product owner can sell the product\") */\n      tag_42\n      jumpi\n      mload(0x40)\n      0x08c379a000000000000000000000000000000000000000000000000000000000\n      dup2\n      mstore\n      0x04\n      add\n      tag_43\n      swap1\n      tag_44\n      jump\t// in\n    tag_43:\n      mload(0x40)\n      dup1\n      swap2\n      sub\n      swap1\n      revert\n    tag_42:\n        /* \"contracts/ProductSupplyChain.sol\":1922:1932  msg.sender */\n      caller\n        /* \"contracts/ProductSupplyChain.sol\":1912:1932  _buyer != msg.sender */\n      0xffffffffffffffffffffffffffffffffffffffff\n      and\n        /* \"contracts/ProductSupplyChain.sol\":1912:1918  _buyer */\n      dup2\n        /* \"contracts/ProductSupplyChain.sol\":1912:1932  _buyer != msg.sender */\n      0xffffffffffffffffffffffffffffffffffffffff\n      and\n      sub\n        /* \"contracts/ProductSupplyChain.sol\":1904:1974  require(_buyer != msg.sender, \"Buyer should not be the current owner\") */\n      tag_45\n      jumpi\n      mload(0x40)\n      0x08c379a000000000000000000000000000000000000000000000000000000000\n      dup2\n      mstore\n      0x04\n      add\n      tag_46\n      swap1\n      tag_47\n      jump\t// in\n    tag_46:\n      mload(0x40)\n      dup1\n      swap2\n      sub\n      swap1\n      revert\n    tag_45:\n        /* \"contracts/ProductSupplyChain.sol\":2027:2044  Registry registry */\n      0x00\n        /* \"contracts/ProductSupplyChain.sol\":2056:2071  registryAddress */\n      0x02\n      0x00\n      swap1\n      sload\n      swap1\n      0x0100\n      exp\n      swap1\n      div\n      0xffffffffffffffffffffffffffffffffffffffff\n      and\n        /* \"contracts/ProductSupplyChain.sol\":2027:2072  Registry registry = Registry(registryAddress) */\n      swap1\n      pop\n        /* \"contracts/ProductSupplyChain.sol\":2087:2095  registry */\n      dup1\n        /* \"contracts/ProductSupplyChain.sol\":2087:2113  registry.isVerifiedProduct */\n      0xffffffffffffffffffffffffffffffffffffffff\n      and\n      0xebd13f69\n        /* \"contracts/ProductSupplyChain.sol\":2114:2124  _productId */\n      dup5\n        /* \"contracts/ProductSupplyChain.sol\":2087:2125  registry.isVerifiedProduct(_productId) */\n      mload(0x40)\n      dup3\n      0xffffffff\n      and\n      0xe0\n      shl\n      dup2\n      mstore\n      0x04\n      add\n      tag_48\n      swap2\n      swap1\n      tag_49\n      jump\t// in\n    tag_48:\n      0x20\n      mload(0x40)\n      dup1\n      dup4\n      sub\n      dup2\n      dup7\n      gas\n      staticcall\n      iszero\n      dup1\n      iszero\n      tag_51\n      jumpi\n      returndatasize\n      0x00\n      dup1\n      returndatacopy\n      revert(0x00, returndatasize)\n    tag_51:\n      pop\n      pop\n      pop\n      pop\n      mload(0x40)\n      returndatasize\n      not(0x1f)\n      0x1f\n      dup3\n      add\n      and\n      dup3\n      add\n      dup1\n      0x40\n      mstore\n      pop\n      dup2\n      add\n      swap1\n      tag_52\n      swap2\n      swap1\n      tag_53\n      jump\t// in\n    tag_52:\n        /* \"contracts/ProductSupplyChain.sol\":2079:2153  require(registry.isVerifiedProduct(_productId), \"Product is not verified\") */\n      tag_54\n      jumpi\n      mload(0x40)\n      0x08c379a000000000000000000000000000000000000000000000000000000000\n      dup2\n      mstore\n      0x04\n      add\n      tag_55\n      swap1\n      tag_56\n      jump\t// in\n    tag_55:\n      mload(0x40)\n      dup1\n      swap2\n      sub\n      swap1\n      revert\n    tag_54:\n        /* \"contracts/ProductSupplyChain.sol\":2257:2263  _buyer */\n      dup2\n        /* \"contracts/ProductSupplyChain.sol\":2221:2229  products */\n      0x01\n        /* \"contracts/ProductSupplyChain.sol\":2221:2241  products[_productId] */\n      0x00\n        /* \"contracts/ProductSupplyChain.sol\":2230:2240  _productId */\n      dup6\n        /* \"contracts/ProductSupplyChain.sol\":2221:2241  products[_productId] */\n      dup2\n      mstore\n      0x20\n      add\n      swap1\n      dup2\n      mstore\n      0x20\n      add\n      0x00\n      keccak256\n        /* \"contracts/ProductSupplyChain.sol\":2221:2254  products[_productId].currentOwner */\n      0x02\n      add\n      0x00\n        /* \"contracts/ProductSupplyChain.sol\":2221:2263  products[_productId].currentOwner = _buyer */\n      0x0100\n      exp\n      dup2\n      sload\n      dup2\n      0xffffffffffffffffffffffffffffffffffffffff\n      mul\n      not\n      and\n      swap1\n      dup4\n      0xffffffffffffffffffffffffffffffffffffffff\n      and\n      mul\n      or\n      swap1\n      sstore\n      pop\n        /* \"contracts/ProductSupplyChain.sol\":2312:2343  ProductSold(_productId, _buyer) */\n      0xbdb79f0b777669cf4d01754a6d6b461bdd8d0f18b57c036e7d4bf3a567f33784\n        /* \"contracts/ProductSupplyChain.sol\":2324:2334  _productId */\n      dup4\n        /* \"contracts/ProductSupplyChain.sol\":2336:2342  _buyer */\n      dup4\n        /* \"contracts/ProductSupplyChain.sol\":2312:2343  ProductSold(_productId, _buyer) */\n      mload(0x40)\n      tag_57\n      swap3\n      swap2\n      swap1\n      tag_58\n      jump\t// in\n    tag_57:\n      mload(0x40)\n      dup1\n      swap2\n      sub\n      swap1\n      log1\n        /* \"contracts/ProductSupplyChain.sol\":1545:2347  {... */\n      pop\n        /* \"contracts/ProductSupplyChain.sol\":1481:2347  function sellProduct(uint256 _productId, address _buyer) public {... */\n      pop\n      pop\n      jump\t// out\n        /* \"@openzeppelin/contracts/access/Ownable.sol\":2293:2394  function renounceOwnership() public virtual onlyOwner {... */\n    tag_16:\n        /* \"@openzeppelin/contracts/access/Ownable.sol\":1531:1544  _checkOwner() */\n      tag_60\n        /* \"@openzeppelin/contracts/access/Ownable.sol\":1531:1542  _checkOwner */\n      tag_61\n        /* \"@openzeppelin/contracts/access/Ownable.sol\":1531:1544  _checkOwner() */\n      jump\t// in\n    tag_60:\n        /* \"@openzeppelin/contracts/access/Ownable.sol\":2357:2387  _transferOwnership(address(0)) */\n      tag_63\n        /* \"@openzeppelin/contracts/access/Ownable.sol\":2384:2385  0 */\n      0x00\n        /* \"@openzeppelin/contracts/access/Ownable.sol\":2357:2375  _transferOwnership */\n      tag_64\n        /* \"@openzeppelin/contracts/access/Ownable.sol\":2357:2387  _transferOwnership(address(0)) */\n      jump\t// in\n    tag_63:\n        /* \"@openzeppelin/contracts/access/Ownable.sol\":2293:2394  function renounceOwnership() public virtual onlyOwner {... */\n      jump\t// out\n        /* \"contracts/ProductSupplyChain.sol\":454:497  mapping(uint256 => Product) public products */\n    tag_20:\n      mstore(0x20, 0x01)\n      dup1\n      0x00\n      mstore\n      keccak256(0x00, 0x40)\n      0x00\n      swap2\n      pop\n      swap1\n      pop\n      dup1\n      0x00\n      add\n      sload\n      swap1\n      dup1\n      0x01\n      add\n      dup1\n      sload\n      tag_65\n      swap1\n      tag_66\n      jump\t// in\n    tag_65:\n      dup1\n      0x1f\n      add\n      0x20\n      dup1\n      swap2\n      div\n      mul\n      0x20\n      add\n      mload(0x40)\n      swap1\n      dup2\n      add\n      0x40\n      mstore\n      dup1\n      swap3\n      swap2\n      swap1\n      dup2\n      dup2\n      mstore\n      0x20\n      add\n      dup3\n      dup1\n      sload\n      tag_67\n      swap1\n      tag_66\n      jump\t// in\n    tag_67:\n      dup1\n      iszero\n      tag_68\n      jumpi\n      dup1\n      0x1f\n      lt\n      tag_69\n      jumpi\n      0x0100\n      dup1\n      dup4\n      sload\n      div\n      mul\n      dup4\n      mstore\n      swap2\n      0x20\n      add\n      swap2\n      jump(tag_68)\n    tag_69:\n      dup3\n      add\n      swap2\n      swap1\n      0x00\n      mstore\n      keccak256(0x00, 0x20)\n      swap1\n    tag_70:\n      dup2\n      sload\n      dup2\n      mstore\n      swap1\n      0x01\n      add\n      swap1\n      0x20\n      add\n      dup1\n      dup4\n      gt\n      tag_70\n      jumpi\n      dup3\n      swap1\n      sub\n      0x1f\n      and\n      dup3\n      add\n      swap2\n    tag_68:\n      pop\n      pop\n      pop\n      pop\n      pop\n      swap1\n      dup1\n      0x02\n      add\n      0x00\n      swap1\n      sload\n      swap1\n      0x0100\n      exp\n      swap1\n      div\n      0xffffffffffffffffffffffffffffffffffffffff\n      and\n      swap1\n      dup1\n      0x03\n      add\n      sload\n      swap1\n      dup1\n      0x04\n      add\n      dup1\n      sload\n      tag_71\n      swap1\n      tag_66\n      jump\t// in\n    tag_71:\n      dup1\n      0x1f\n      add\n      0x20\n      dup1\n      swap2\n      div\n      mul\n      0x20\n      add\n      mload(0x40)\n      swap1\n      dup2\n      add\n      0x40\n      mstore\n      dup1\n      swap3\n      swap2\n      swap1\n      dup2\n      dup2\n      mstore\n      0x20\n      add\n      dup3\n      dup1\n      sload\n      tag_72\n      swap1\n      tag_66\n      jump\t// in\n    tag_72:\n      dup1\n      iszero\n      tag_73\n      jumpi\n      dup1\n      0x1f\n      lt\n      tag_74\n      jumpi\n      0x0100\n      dup1\n      dup4\n      sload\n      div\n      mul\n      dup4\n      mstore\n      swap2\n      0x20\n      add\n      swap2\n      jump(tag_73)\n    tag_74:\n      dup3\n      add\n      swap2\n      swap1\n      0x00\n      mstore\n      keccak256(0x00, 0x20)\n      swap1\n    tag_75:\n      dup2\n      sload\n      dup2\n      mstore\n      swap1\n      0x01\n      add\n      swap1\n      0x20\n      add\n      dup1\n      dup4\n      gt\n      tag_75\n      jumpi\n      dup3\n      swap1\n      sub\n      0x1f\n      and\n      dup3\n      add\n      swap2\n    tag_73:\n      pop\n      pop\n      pop\n      pop\n      pop\n      swap1\n      pop\n      dup6\n      jump\t// out\n        /* \"@openzeppelin/contracts/access/Ownable.sol\":1638:1723  function owner() public view virtual returns (address) {... */\n    tag_24:\n        /* \"@openzeppelin/contracts/access/Ownable.sol\":1684:1691  address */\n      0x00\n        /* \"@openzeppelin/contracts/access/Ownable.sol\":1710:1716  _owner */\n      dup1\n      0x00\n      swap1\n      sload\n      swap1\n      0x0100\n      exp\n      swap1\n      div\n      0xffffffffffffffffffffffffffffffffffffffff\n      and\n        /* \"@openzeppelin/contracts/access/Ownable.sol\":1703:1716  return _owner */\n      swap1\n      pop\n        /* \"@openzeppelin/contracts/access/Ownable.sol\":1638:1723  function owner() public view virtual returns (address) {... */\n      swap1\n      jump\t// out\n        /* \"contracts/ProductSupplyChain.sol\":771:1399  function createProduct(uint256 _productId, string memory _name, uint256 _price, string memory _state) public onlyOwner {... */\n    tag_30:\n        /* \"@openzeppelin/contracts/access/Ownable.sol\":1531:1544  _checkOwner() */\n      tag_78\n        /* \"@openzeppelin/contracts/access/Ownable.sol\":1531:1542  _checkOwner */\n      tag_61\n        /* \"@openzeppelin/contracts/access/Ownable.sol\":1531:1544  _checkOwner() */\n      jump\t// in\n    tag_78:\n        /* \"contracts/ProductSupplyChain.sol\":983:984  0 */\n      0x00\n        /* \"contracts/ProductSupplyChain.sol\":949:957  products */\n      0x01\n        /* \"contracts/ProductSupplyChain.sol\":949:969  products[_productId] */\n      0x00\n        /* \"contracts/ProductSupplyChain.sol\":958:968  _productId */\n      dup7\n        /* \"contracts/ProductSupplyChain.sol\":949:969  products[_productId] */\n      dup2\n      mstore\n      0x20\n      add\n      swap1\n      dup2\n      mstore\n      0x20\n      add\n      0x00\n      keccak256\n        /* \"contracts/ProductSupplyChain.sol\":949:979  products[_productId].productId */\n      0x00\n      add\n      sload\n        /* \"contracts/ProductSupplyChain.sol\":949:984  products[_productId].productId == 0 */\n      eq\n        /* \"contracts/ProductSupplyChain.sol\":941:1011  require(products[_productId].productId == 0, \"Product already exists\") */\n      tag_80\n      jumpi\n      mload(0x40)\n      0x08c379a000000000000000000000000000000000000000000000000000000000\n      dup2\n      mstore\n      0x04\n      add\n      tag_81\n      swap1\n      tag_82\n      jump\t// in\n    tag_81:\n      mload(0x40)\n      dup1\n      swap2\n      sub\n      swap1\n      revert\n    tag_80:\n        /* \"contracts/ProductSupplyChain.sol\":1049:1074  Product memory newProduct */\n      0x00\n        /* \"contracts/ProductSupplyChain.sol\":1077:1230  Product({... */\n      mload(0x40)\n      dup1\n      0xa0\n      add\n      0x40\n      mstore\n      dup1\n        /* \"contracts/ProductSupplyChain.sol\":1107:1117  _productId */\n      dup7\n        /* \"contracts/ProductSupplyChain.sol\":1077:1230  Product({... */\n      dup2\n      mstore\n      0x20\n      add\n        /* \"contracts/ProductSupplyChain.sol\":1134:1139  _name */\n      dup6\n        /* \"contracts/ProductSupplyChain.sol\":1077:1230  Product({... */\n      dup2\n      mstore\n      0x20\n      add\n        /* \"contracts/ProductSupplyChain.sol\":1164:1174  msg.sender */\n      caller\n        /* \"contracts/ProductSupplyChain.sol\":1077:1230  Product({... */\n      0xffffffffffffffffffffffffffffffffffffffff\n      and\n      dup2\n      mstore\n      0x20\n      add\n        /* \"contracts/ProductSupplyChain.sol\":1192:1198  _price */\n      dup5\n        /* \"contracts/ProductSupplyChain.sol\":1077:1230  Product({... */\n      dup2\n      mstore\n      0x20\n      add\n        /* \"contracts/ProductSupplyChain.sol\":1216:1222  _state */\n      dup4\n        /* \"contracts/ProductSupplyChain.sol\":1077:1230  Product({... */\n      dup2\n      mstore\n      pop\n        /* \"contracts/ProductSupplyChain.sol\":1049:1230  Product memory newProduct = Product({... */\n      swap1\n      pop\n        /* \"contracts/ProductSupplyChain.sol\":1288:1298  newProduct */\n      dup1\n        /* \"contracts/ProductSupplyChain.sol\":1265:1273  products */\n      0x01\n        /* \"contracts/ProductSupplyChain.sol\":1265:1285  products[_productId] */\n      0x00\n        /* \"contracts/ProductSupplyChain.sol\":1274:1284  _productId */\n      dup8\n        /* \"contracts/ProductSupplyChain.sol\":1265:1285  products[_productId] */\n      dup2\n      mstore\n      0x20\n      add\n      swap1\n      dup2\n      mstore\n      0x20\n      add\n      0x00\n      keccak256\n        /* \"contracts/ProductSupplyChain.sol\":1265:1298  products[_productId] = newProduct */\n      0x00\n      dup3\n      add\n      mload\n      dup2\n      0x00\n      add\n      sstore\n      0x20\n      dup3\n      add\n      mload\n      dup2\n      0x01\n      add\n      swap1\n      dup2\n      tag_83\n      swap2\n      swap1\n      tag_84\n      jump\t// in\n    tag_83:\n      pop\n      0x40\n      dup3\n      add\n      mload\n      dup2\n      0x02\n      add\n      exp(0x0100, 0x00)\n      dup2\n      sload\n      dup2\n      0xffffffffffffffffffffffffffffffffffffffff\n      mul\n      not\n      and\n      swap1\n      dup4\n      0xffffffffffffffffffffffffffffffffffffffff\n      and\n      mul\n      or\n      swap1\n      sstore\n      pop\n      0x60\n      dup3\n      add\n      mload\n      dup2\n      0x03\n      add\n      sstore\n      0x80\n      dup3\n      add\n      mload\n      dup2\n      0x04\n      add\n      swap1\n      dup2\n      tag_85\n      swap2\n      swap1\n      tag_84\n      jump\t// in\n    tag_85:\n      pop\n      swap1\n      pop\n      pop\n        /* \"contracts/ProductSupplyChain.sol\":1350:1395  ProductCreated(_productId, _name, msg.sender) */\n      0xaf6ffb6277511513e7d579327cc1fc57f0266df2fb11a60b13487b8c9cd2c388\n        /* \"contracts/ProductSupplyChain.sol\":1365:1375  _productId */\n      dup6\n        /* \"contracts/ProductSupplyChain.sol\":1377:1382  _name */\n      dup6\n        /* \"contracts/ProductSupplyChain.sol\":1384:1394  msg.sender */\n      caller\n        /* \"contracts/ProductSupplyChain.sol\":1350:1395  ProductCreated(_productId, _name, msg.sender) */\n      mload(0x40)\n      tag_86\n      swap4\n      swap3\n      swap2\n      swap1\n      tag_87\n      jump\t// in\n    tag_86:\n      mload(0x40)\n      dup1\n      swap2\n      sub\n      swap1\n      log1\n        /* \"contracts/ProductSupplyChain.sol\":890:1399  {... */\n      pop\n        /* \"contracts/ProductSupplyChain.sol\":771:1399  function createProduct(uint256 _productId, string memory _name, uint256 _price, string memory _state) public onlyOwner {... */\n      pop\n      pop\n      pop\n      pop\n      jump\t// out\n        /* \"contracts/ProductSupplyChain.sol\":1446:1476  address public registryAddress */\n    tag_32:\n      0x02\n      0x00\n      swap1\n      sload\n      swap1\n      0x0100\n      exp\n      swap1\n      div\n      0xffffffffffffffffffffffffffffffffffffffff\n      and\n      dup2\n      jump\t// out\n        /* \"@openzeppelin/contracts/access/Ownable.sol\":2543:2758  function transferOwnership(address newOwner) public virtual onlyOwner {... */\n    tag_37:\n        /* \"@openzeppelin/contracts/access/Ownable.sol\":1531:1544  _checkOwner() */\n      tag_89\n        /* \"@openzeppelin/contracts/access/Ownable.sol\":1531:1542  _checkOwner */\n      tag_61\n        /* \"@openzeppelin/contracts/access/Ownable.sol\":1531:1544  _checkOwner() */\n      jump\t// in\n    tag_89:\n        /* \"@openzeppelin/contracts/access/Ownable.sol\":2647:2648  0 */\n      0x00\n        /* \"@openzeppelin/contracts/access/Ownable.sol\":2627:2649  newOwner == address(0) */\n      0xffffffffffffffffffffffffffffffffffffffff\n      and\n        /* \"@openzeppelin/contracts/access/Ownable.sol\":2627:2635  newOwner */\n      dup2\n        /* \"@openzeppelin/contracts/access/Ownable.sol\":2627:2649  newOwner == address(0) */\n      0xffffffffffffffffffffffffffffffffffffffff\n      and\n      sub\n        /* \"@openzeppelin/contracts/access/Ownable.sol\":2623:2714  if (newOwner == address(0)) {... */\n      tag_91\n      jumpi\n        /* \"@openzeppelin/contracts/access/Ownable.sol\":2700:2701  0 */\n      0x00\n        /* \"@openzeppelin/contracts/access/Ownable.sol\":2672:2703  OwnableInvalidOwner(address(0)) */\n      mload(0x40)\n      0x1e4fbdf700000000000000000000000000000000000000000000000000000000\n      dup2\n      mstore\n      0x04\n      add\n      tag_92\n      swap2\n      swap1\n      tag_26\n      jump\t// in\n    tag_92:\n      mload(0x40)\n      dup1\n      swap2\n      sub\n      swap1\n      revert\n        /* \"@openzeppelin/contracts/access/Ownable.sol\":2623:2714  if (newOwner == address(0)) {... */\n    tag_91:\n        /* \"@openzeppelin/contracts/access/Ownable.sol\":2723:2751  _transferOwnership(newOwner) */\n      tag_93\n        /* \"@openzeppelin/contracts/access/Ownable.sol\":2742:2750  newOwner */\n      dup2\n        /* \"@openzeppelin/contracts/access/Ownable.sol\":2723:2741  _transferOwnership */\n      tag_64\n        /* \"@openzeppelin/contracts/access/Ownable.sol\":2723:2751  _transferOwnership(newOwner) */\n      jump\t// in\n    tag_93:\n        /* \"@openzeppelin/contracts/access/Ownable.sol\":2543:2758  function transferOwnership(address newOwner) public virtual onlyOwner {... */\n      pop\n      jump\t// out\n        /* \"@openzeppelin/contracts/access/Ownable.sol\":1796:1958  function _checkOwner() internal view virtual {... */\n    tag_61:\n        /* \"@openzeppelin/contracts/access/Ownable.sol\":1866:1878  _msgSender() */\n      tag_95\n        /* \"@openzeppelin/contracts/access/Ownable.sol\":1866:1876  _msgSender */\n      tag_96\n        /* \"@openzeppelin/contracts/access/Ownable.sol\":1866:1878  _msgSender() */\n      jump\t// in\n    tag_95:\n        /* \"@openzeppelin/contracts/access/Ownable.sol\":1855:1878  owner() != _msgSender() */\n      0xffffffffffffffffffffffffffffffffffffffff\n      and\n        /* \"@openzeppelin/contracts/access/Ownable.sol\":1855:1862  owner() */\n      tag_97\n        /* \"@openzeppelin/contracts/access/Ownable.sol\":1855:1860  owner */\n      tag_24\n        /* \"@openzeppelin/contracts/access/Ownable.sol\":1855:1862  owner() */\n      jump\t// in\n    tag_97:\n        /* \"@openzeppelin/contracts/access/Ownable.sol\":1855:1878  owner() != _msgSender() */\n      0xffffffffffffffffffffffffffffffffffffffff\n      and\n      eq\n        /* \"@openzeppelin/contracts/access/Ownable.sol\":1851:1952  if (owner() != _msgSender()) {... */\n      tag_98\n      jumpi\n        /* \"@openzeppelin/contracts/access/Ownable.sol\":1928:1940  _msgSender() */\n      tag_99\n        /* \"@openzeppelin/contracts/access/Ownable.sol\":1928:1938  _msgSender */\n      tag_96\n        /* \"@openzeppelin/contracts/access/Ownable.sol\":1928:1940  _msgSender() */\n      jump\t// in\n    tag_99:\n        /* \"@openzeppelin/contracts/access/Ownable.sol\":1901:1941  OwnableUnauthorizedAccount(_msgSender()) */\n      mload(0x40)\n      0x118cdaa700000000000000000000000000000000000000000000000000000000\n      dup2\n      mstore\n      0x04\n      add\n      tag_100\n      swap2\n      swap1\n      tag_26\n      jump\t// in\n    tag_100:\n      mload(0x40)\n      dup1\n      swap2\n      sub\n      swap1\n      revert\n        /* \"@openzeppelin/contracts/access/Ownable.sol\":1851:1952  if (owner() != _msgSender()) {... */\n    tag_98:\n        /* \"@openzeppelin/contracts/access/Ownable.sol\":1796:1958  function _checkOwner() internal view virtual {... */\n      jump\t// out\n        /* \"@openzeppelin/contracts/access/Ownable.sol\":2912:3099  function _transferOwnership(address newOwner) internal virtual {... */\n    tag_64:\n        /* \"@openzeppelin/contracts/access/Ownable.sol\":2985:3001  address oldOwner */\n      0x00\n        /* \"@openzeppelin/contracts/access/Ownable.sol\":3004:3010  _owner */\n      dup1\n      0x00\n      swap1\n      sload\n      swap1\n      0x0100\n      exp\n      swap1\n      div\n      0xffffffffffffffffffffffffffffffffffffffff\n      and\n        /* \"@openzeppelin/contracts/access/Ownable.sol\":2985:3010  address oldOwner = _owner */\n      swap1\n      pop\n        /* \"@openzeppelin/contracts/access/Ownable.sol\":3029:3037  newOwner */\n      dup2\n        /* \"@openzeppelin/contracts/access/Ownable.sol\":3020:3026  _owner */\n      0x00\n      dup1\n        /* \"@openzeppelin/contracts/access/Ownable.sol\":3020:3037  _owner = newOwner */\n      0x0100\n      exp\n      dup2\n      sload\n      dup2\n      0xffffffffffffffffffffffffffffffffffffffff\n      mul\n      not\n      and\n      swap1\n      dup4\n      0xffffffffffffffffffffffffffffffffffffffff\n      and\n      mul\n      or\n      swap1\n      sstore\n      pop\n        /* \"@openzeppelin/contracts/access/Ownable.sol\":3083:3091  newOwner */\n      dup2\n        /* \"@openzeppelin/contracts/access/Ownable.sol\":3052:3092  OwnershipTransferred(oldOwner, newOwner) */\n      0xffffffffffffffffffffffffffffffffffffffff\n      and\n        /* \"@openzeppelin/contracts/access/Ownable.sol\":3073:3081  oldOwner */\n      dup2\n        /* \"@openzeppelin/contracts/access/Ownable.sol\":3052:3092  OwnershipTransferred(oldOwner, newOwner) */\n      0xffffffffffffffffffffffffffffffffffffffff\n      and\n      0x8be0079c531659141344cd1fd0a4f28419497f9722a3daafe3b4186f6b6457e0\n      mload(0x40)\n      mload(0x40)\n      dup1\n      swap2\n      sub\n      swap1\n      log3\n        /* \"@openzeppelin/contracts/access/Ownable.sol\":2975:3099  {... */\n      pop\n        /* \"@openzeppelin/contracts/access/Ownable.sol\":2912:3099  function _transferOwnership(address newOwner) internal virtual {... */\n      pop\n      jump\t// out\n        /* \"@openzeppelin/contracts/utils/Context.sol\":656:752  function _msgSender() internal view virtual returns (address) {... */\n    tag_96:\n        /* \"@openzeppelin/contracts/utils/Context.sol\":709:716  address */\n      0x00\n        /* \"@openzeppelin/contracts/utils/Context.sol\":735:745  msg.sender */\n      caller\n        /* \"@openzeppelin/contracts/utils/Context.sol\":728:745  return msg.sender */\n      swap1\n      pop\n        /* \"@openzeppelin/contracts/utils/Context.sol\":656:752  function _msgSender() internal view virtual returns (address) {... */\n      swap1\n      jump\t// out\n        /* \"#utility.yul\":7:82   */\n    tag_103:\n        /* \"#utility.yul\":40:46   */\n      0x00\n        /* \"#utility.yul\":73:75   */\n      0x40\n        /* \"#utility.yul\":67:76   */\n      mload\n        /* \"#utility.yul\":57:76   */\n      swap1\n      pop\n        /* \"#utility.yul\":7:82   */\n      swap1\n      jump\t// out\n        /* \"#utility.yul\":88:205   */\n    tag_104:\n        /* \"#utility.yul\":197:198   */\n      0x00\n        /* \"#utility.yul\":194:195   */\n      dup1\n        /* \"#utility.yul\":187:199   */\n      revert\n        /* \"#utility.yul\":211:328   */\n    tag_105:\n        /* \"#utility.yul\":320:321   */\n      0x00\n        /* \"#utility.yul\":317:318   */\n      dup1\n        /* \"#utility.yul\":310:322   */\n      revert\n        /* \"#utility.yul\":334:411   */\n    tag_106:\n        /* \"#utility.yul\":371:378   */\n      0x00\n        /* \"#utility.yul\":400:405   */\n      dup2\n        /* \"#utility.yul\":389:405   */\n      swap1\n      pop\n        /* \"#utility.yul\":334:411   */\n      swap2\n      swap1\n      pop\n      jump\t// out\n        /* \"#utility.yul\":417:539   */\n    tag_107:\n        /* \"#utility.yul\":490:514   */\n      tag_164\n        /* \"#utility.yul\":508:513   */\n      dup2\n        /* \"#utility.yul\":490:514   */\n      tag_106\n      jump\t// in\n    tag_164:\n        /* \"#utility.yul\":483:488   */\n      dup2\n        /* \"#utility.yul\":480:515   */\n      eq\n        /* \"#utility.yul\":470:533   */\n      tag_165\n      jumpi\n        /* \"#utility.yul\":529:530   */\n      0x00\n        /* \"#utility.yul\":526:527   */\n      dup1\n        /* \"#utility.yul\":519:531   */\n      revert\n        /* \"#utility.yul\":470:533   */\n    tag_165:\n        /* \"#utility.yul\":417:539   */\n      pop\n      jump\t// out\n        /* \"#utility.yul\":545:684   */\n    tag_108:\n        /* \"#utility.yul\":591:596   */\n      0x00\n        /* \"#utility.yul\":629:635   */\n      dup2\n        /* \"#utility.yul\":616:636   */\n      calldataload\n        /* \"#utility.yul\":607:636   */\n      swap1\n      pop\n        /* \"#utility.yul\":645:678   */\n      tag_167\n        /* \"#utility.yul\":672:677   */\n      dup2\n        /* \"#utility.yul\":645:678   */\n      tag_107\n      jump\t// in\n    tag_167:\n        /* \"#utility.yul\":545:684   */\n      swap3\n      swap2\n      pop\n      pop\n      jump\t// out\n        /* \"#utility.yul\":690:816   */\n    tag_109:\n        /* \"#utility.yul\":727:734   */\n      0x00\n        /* \"#utility.yul\":767:809   */\n      0xffffffffffffffffffffffffffffffffffffffff\n        /* \"#utility.yul\":760:765   */\n      dup3\n        /* \"#utility.yul\":756:810   */\n      and\n        /* \"#utility.yul\":745:810   */\n      swap1\n      pop\n        /* \"#utility.yul\":690:816   */\n      swap2\n      swap1\n      pop\n      jump\t// out\n        /* \"#utility.yul\":822:918   */\n    tag_110:\n        /* \"#utility.yul\":859:866   */\n      0x00\n        /* \"#utility.yul\":888:912   */\n      tag_170\n        /* \"#utility.yul\":906:911   */\n      dup3\n        /* \"#utility.yul\":888:912   */\n      tag_109\n      jump\t// in\n    tag_170:\n        /* \"#utility.yul\":877:912   */\n      swap1\n      pop\n        /* \"#utility.yul\":822:918   */\n      swap2\n      swap1\n      pop\n      jump\t// out\n        /* \"#utility.yul\":924:1046   */\n    tag_111:\n        /* \"#utility.yul\":997:1021   */\n      tag_172\n        /* \"#utility.yul\":1015:1020   */\n      dup2\n        /* \"#utility.yul\":997:1021   */\n      tag_110\n      jump\t// in\n    tag_172:\n        /* \"#utility.yul\":990:995   */\n      dup2\n        /* \"#utility.yul\":987:1022   */\n      eq\n        /* \"#utility.yul\":977:1040   */\n      tag_173\n      jumpi\n        /* \"#utility.yul\":1036:1037   */\n      0x00\n        /* \"#utility.yul\":1033:1034   */\n      dup1\n        /* \"#utility.yul\":1026:1038   */\n      revert\n        /* \"#utility.yul\":977:1040   */\n    tag_173:\n        /* \"#utility.yul\":924:1046   */\n      pop\n      jump\t// out\n        /* \"#utility.yul\":1052:1191   */\n    tag_112:\n        /* \"#utility.yul\":1098:1103   */\n      0x00\n        /* \"#utility.yul\":1136:1142   */\n      dup2\n        /* \"#utility.yul\":1123:1143   */\n      calldataload\n        /* \"#utility.yul\":1114:1143   */\n      swap1\n      pop\n        /* \"#utility.yul\":1152:1185   */\n      tag_175\n        /* \"#utility.yul\":1179:1184   */\n      dup2\n        /* \"#utility.yul\":1152:1185   */\n      tag_111\n      jump\t// in\n    tag_175:\n        /* \"#utility.yul\":1052:1191   */\n      swap3\n      swap2\n      pop\n      pop\n      jump\t// out\n        /* \"#utility.yul\":1197:1671   */\n    tag_13:\n        /* \"#utility.yul\":1265:1271   */\n      0x00\n        /* \"#utility.yul\":1273:1279   */\n      dup1\n        /* \"#utility.yul\":1322:1324   */\n      0x40\n        /* \"#utility.yul\":1310:1319   */\n      dup4\n        /* \"#utility.yul\":1301:1308   */\n      dup6\n        /* \"#utility.yul\":1297:1320   */\n      sub\n        /* \"#utility.yul\":1293:1325   */\n      slt\n        /* \"#utility.yul\":1290:1409   */\n      iszero\n      tag_177\n      jumpi\n        /* \"#utility.yul\":1328:1407   */\n      tag_178\n      tag_104\n      jump\t// in\n    tag_178:\n        /* \"#utility.yul\":1290:1409   */\n    tag_177:\n        /* \"#utility.yul\":1448:1449   */\n      0x00\n        /* \"#utility.yul\":1473:1526   */\n      tag_179\n        /* \"#utility.yul\":1518:1525   */\n      dup6\n        /* \"#utility.yul\":1509:1515   */\n      dup3\n        /* \"#utility.yul\":1498:1507   */\n      dup7\n        /* \"#utility.yul\":1494:1516   */\n      add\n        /* \"#utility.yul\":1473:1526   */\n      tag_108\n      jump\t// in\n    tag_179:\n        /* \"#utility.yul\":1463:1526   */\n      swap3\n      pop\n        /* \"#utility.yul\":1419:1536   */\n      pop\n        /* \"#utility.yul\":1575:1577   */\n      0x20\n        /* \"#utility.yul\":1601:1654   */\n      tag_180\n        /* \"#utility.yul\":1646:1653   */\n      dup6\n        /* \"#utility.yul\":1637:1643   */\n      dup3\n        /* \"#utility.yul\":1626:1635   */\n      dup7\n        /* \"#utility.yul\":1622:1644   */\n      add\n        /* \"#utility.yul\":1601:1654   */\n      tag_112\n      jump\t// in\n    tag_180:\n        /* \"#utility.yul\":1591:1654   */\n      swap2\n      pop\n        /* \"#utility.yul\":1546:1664   */\n      pop\n        /* \"#utility.yul\":1197:1671   */\n      swap3\n      pop\n      swap3\n      swap1\n      pop\n      jump\t// out\n        /* \"#utility.yul\":1677:2006   */\n    tag_19:\n        /* \"#utility.yul\":1736:1742   */\n      0x00\n        /* \"#utility.yul\":1785:1787   */\n      0x20\n        /* \"#utility.yul\":1773:1782   */\n      dup3\n        /* \"#utility.yul\":1764:1771   */\n      dup5\n        /* \"#utility.yul\":1760:1783   */\n      sub\n        /* \"#utility.yul\":1756:1788   */\n      slt\n        /* \"#utility.yul\":1753:1872   */\n      iszero\n      tag_182\n      jumpi\n        /* \"#utility.yul\":1791:1870   */\n      tag_183\n      tag_104\n      jump\t// in\n    tag_183:\n        /* \"#utility.yul\":1753:1872   */\n    tag_182:\n        /* \"#utility.yul\":1911:1912   */\n      0x00\n        /* \"#utility.yul\":1936:1989   */\n      tag_184\n        /* \"#utility.yul\":1981:1988   */\n      dup5\n        /* \"#utility.yul\":1972:1978   */\n      dup3\n        /* \"#utility.yul\":1961:1970   */\n      dup6\n        /* \"#utility.yul\":1957:1979   */\n      add\n        /* \"#utility.yul\":1936:1989   */\n      tag_108\n      jump\t// in\n    tag_184:\n        /* \"#utility.yul\":1926:1989   */\n      swap2\n      pop\n        /* \"#utility.yul\":1882:1999   */\n      pop\n        /* \"#utility.yul\":1677:2006   */\n      swap3\n      swap2\n      pop\n      pop\n      jump\t// out\n        /* \"#utility.yul\":2012:2130   */\n    tag_113:\n        /* \"#utility.yul\":2099:2123   */\n      tag_186\n        /* \"#utility.yul\":2117:2122   */\n      dup2\n        /* \"#utility.yul\":2099:2123   */\n      tag_106\n      jump\t// in\n    tag_186:\n        /* \"#utility.yul\":2094:2097   */\n      dup3\n        /* \"#utility.yul\":2087:2124   */\n      mstore\n        /* \"#utility.yul\":2012:2130   */\n      pop\n      pop\n      jump\t// out\n        /* \"#utility.yul\":2136:2235   */\n    tag_114:\n        /* \"#utility.yul\":2188:2194   */\n      0x00\n        /* \"#utility.yul\":2222:2227   */\n      dup2\n        /* \"#utility.yul\":2216:2228   */\n      mload\n        /* \"#utility.yul\":2206:2228   */\n      swap1\n      pop\n        /* \"#utility.yul\":2136:2235   */\n      swap2\n      swap1\n      pop\n      jump\t// out\n        /* \"#utility.yul\":2241:2410   */\n    tag_115:\n        /* \"#utility.yul\":2325:2336   */\n      0x00\n        /* \"#utility.yul\":2359:2365   */\n      dup3\n        /* \"#utility.yul\":2354:2357   */\n      dup3\n        /* \"#utility.yul\":2347:2366   */\n      mstore\n        /* \"#utility.yul\":2399:2403   */\n      0x20\n        /* \"#utility.yul\":2394:2397   */\n      dup3\n        /* \"#utility.yul\":2390:2404   */\n      add\n        /* \"#utility.yul\":2375:2404   */\n      swap1\n      pop\n        /* \"#utility.yul\":2241:2410   */\n      swap3\n      swap2\n      pop\n      pop\n      jump\t// out\n        /* \"#utility.yul\":2416:2662   */\n    tag_116:\n        /* \"#utility.yul\":2497:2498   */\n      0x00\n        /* \"#utility.yul\":2507:2620   */\n    tag_190:\n        /* \"#utility.yul\":2521:2527   */\n      dup4\n        /* \"#utility.yul\":2518:2519   */\n      dup2\n        /* \"#utility.yul\":2515:2528   */\n      lt\n        /* \"#utility.yul\":2507:2620   */\n      iszero\n      tag_192\n      jumpi\n        /* \"#utility.yul\":2606:2607   */\n      dup1\n        /* \"#utility.yul\":2601:2604   */\n      dup3\n        /* \"#utility.yul\":2597:2608   */\n      add\n        /* \"#utility.yul\":2591:2609   */\n      mload\n        /* \"#utility.yul\":2587:2588   */\n      dup2\n        /* \"#utility.yul\":2582:2585   */\n      dup5\n        /* \"#utility.yul\":2578:2589   */\n      add\n        /* \"#utility.yul\":2571:2610   */\n      mstore\n        /* \"#utility.yul\":2543:2545   */\n      0x20\n        /* \"#utility.yul\":2540:2541   */\n      dup2\n        /* \"#utility.yul\":2536:2546   */\n      add\n        /* \"#utility.yul\":2531:2546   */\n      swap1\n      pop\n        /* \"#utility.yul\":2507:2620   */\n      jump(tag_190)\n    tag_192:\n        /* \"#utility.yul\":2654:2655   */\n      0x00\n        /* \"#utility.yul\":2645:2651   */\n      dup5\n        /* \"#utility.yul\":2640:2643   */\n      dup5\n        /* \"#utility.yul\":2636:2652   */\n      add\n        /* \"#utility.yul\":2629:2656   */\n      mstore\n        /* \"#utility.yul\":2478:2662   */\n      pop\n        /* \"#utility.yul\":2416:2662   */\n      pop\n      pop\n      pop\n      jump\t// out\n        /* \"#utility.yul\":2668:2770   */\n    tag_117:\n        /* \"#utility.yul\":2709:2715   */\n      0x00\n        /* \"#utility.yul\":2760:2762   */\n      0x1f\n        /* \"#utility.yul\":2756:2763   */\n      not\n        /* \"#utility.yul\":2751:2753   */\n      0x1f\n        /* \"#utility.yul\":2744:2749   */\n      dup4\n        /* \"#utility.yul\":2740:2754   */\n      add\n        /* \"#utility.yul\":2736:2764   */\n      and\n        /* \"#utility.yul\":2726:2764   */\n      swap1\n      pop\n        /* \"#utility.yul\":2668:2770   */\n      swap2\n      swap1\n      pop\n      jump\t// out\n        /* \"#utility.yul\":2776:3153   */\n    tag_118:\n        /* \"#utility.yul\":2864:2867   */\n      0x00\n        /* \"#utility.yul\":2892:2931   */\n      tag_195\n        /* \"#utility.yul\":2925:2930   */\n      dup3\n        /* \"#utility.yul\":2892:2931   */\n      tag_114\n      jump\t// in\n    tag_195:\n        /* \"#utility.yul\":2947:3018   */\n      tag_196\n        /* \"#utility.yul\":3011:3017   */\n      dup2\n        /* \"#utility.yul\":3006:3009   */\n      dup6\n        /* \"#utility.yul\":2947:3018   */\n      tag_115\n      jump\t// in\n    tag_196:\n        /* \"#utility.yul\":2940:3018   */\n      swap4\n      pop\n        /* \"#utility.yul\":3027:3092   */\n      tag_197\n        /* \"#utility.yul\":3085:3091   */\n      dup2\n        /* \"#utility.yul\":3080:3083   */\n      dup6\n        /* \"#utility.yul\":3073:3077   */\n      0x20\n        /* \"#utility.yul\":3066:3071   */\n      dup7\n        /* \"#utility.yul\":3062:3078   */\n      add\n        /* \"#utility.yul\":3027:3092   */\n      tag_116\n      jump\t// in\n    tag_197:\n        /* \"#utility.yul\":3117:3146   */\n      tag_198\n        /* \"#utility.yul\":3139:3145   */\n      dup2\n        /* \"#utility.yul\":3117:3146   */\n      tag_117\n      jump\t// in\n    tag_198:\n        /* \"#utility.yul\":3112:3115   */\n      dup5\n        /* \"#utility.yul\":3108:3147   */\n      add\n        /* \"#utility.yul\":3101:3147   */\n      swap2\n      pop\n        /* \"#utility.yul\":2868:3153   */\n      pop\n        /* \"#utility.yul\":2776:3153   */\n      swap3\n      swap2\n      pop\n      pop\n      jump\t// out\n        /* \"#utility.yul\":3159:3277   */\n    tag_119:\n        /* \"#utility.yul\":3246:3270   */\n      tag_200\n        /* \"#utility.yul\":3264:3269   */\n      dup2\n        /* \"#utility.yul\":3246:3270   */\n      tag_110\n      jump\t// in\n    tag_200:\n        /* \"#utility.yul\":3241:3244   */\n      dup3\n        /* \"#utility.yul\":3234:3271   */\n      mstore\n        /* \"#utility.yul\":3159:3277   */\n      pop\n      pop\n      jump\t// out\n        /* \"#utility.yul\":3283:4129   */\n    tag_22:\n        /* \"#utility.yul\":3528:3532   */\n      0x00\n        /* \"#utility.yul\":3566:3569   */\n      0xa0\n        /* \"#utility.yul\":3555:3564   */\n      dup3\n        /* \"#utility.yul\":3551:3570   */\n      add\n        /* \"#utility.yul\":3543:3570   */\n      swap1\n      pop\n        /* \"#utility.yul\":3580:3651   */\n      tag_202\n        /* \"#utility.yul\":3648:3649   */\n      0x00\n        /* \"#utility.yul\":3637:3646   */\n      dup4\n        /* \"#utility.yul\":3633:3650   */\n      add\n        /* \"#utility.yul\":3624:3630   */\n      dup9\n        /* \"#utility.yul\":3580:3651   */\n      tag_113\n      jump\t// in\n    tag_202:\n        /* \"#utility.yul\":3698:3707   */\n      dup2\n        /* \"#utility.yul\":3692:3696   */\n      dup2\n        /* \"#utility.yul\":3688:3708   */\n      sub\n        /* \"#utility.yul\":3683:3685   */\n      0x20\n        /* \"#utility.yul\":3672:3681   */\n      dup4\n        /* \"#utility.yul\":3668:3686   */\n      add\n        /* \"#utility.yul\":3661:3709   */\n      mstore\n        /* \"#utility.yul\":3726:3804   */\n      tag_203\n        /* \"#utility.yul\":3799:3803   */\n      dup2\n        /* \"#utility.yul\":3790:3796   */\n      dup8\n        /* \"#utility.yul\":3726:3804   */\n      tag_118\n      jump\t// in\n    tag_203:\n        /* \"#utility.yul\":3718:3804   */\n      swap1\n      pop\n        /* \"#utility.yul\":3814:3886   */\n      tag_204\n        /* \"#utility.yul\":3882:3884   */\n      0x40\n        /* \"#utility.yul\":3871:3880   */\n      dup4\n        /* \"#utility.yul\":3867:3885   */\n      add\n        /* \"#utility.yul\":3858:3864   */\n      dup7\n        /* \"#utility.yul\":3814:3886   */\n      tag_119\n      jump\t// in\n    tag_204:\n        /* \"#utility.yul\":3896:3968   */\n      tag_205\n        /* \"#utility.yul\":3964:3966   */\n      0x60\n        /* \"#utility.yul\":3953:3962   */\n      dup4\n        /* \"#utility.yul\":3949:3967   */\n      add\n        /* \"#utility.yul\":3940:3946   */\n      dup6\n        /* \"#utility.yul\":3896:3968   */\n      tag_113\n      jump\t// in\n    tag_205:\n        /* \"#utility.yul\":4016:4025   */\n      dup2\n        /* \"#utility.yul\":4010:4014   */\n      dup2\n        /* \"#utility.yul\":4006:4026   */\n      sub\n        /* \"#utility.yul\":4000:4003   */\n      0x80\n        /* \"#utility.yul\":3989:3998   */\n      dup4\n        /* \"#utility.yul\":3985:4004   */\n      add\n        /* \"#utility.yul\":3978:4027   */\n      mstore\n        /* \"#utility.yul\":4044:4122   */\n      tag_206\n        /* \"#utility.yul\":4117:4121   */\n      dup2\n        /* \"#utility.yul\":4108:4114   */\n      dup5\n        /* \"#utility.yul\":4044:4122   */\n      tag_118\n      jump\t// in\n    tag_206:\n        /* \"#utility.yul\":4036:4122   */\n      swap1\n      pop\n        /* \"#utility.yul\":3283:4129   */\n      swap7\n      swap6\n      pop\n      pop\n      pop\n      pop\n      pop\n      pop\n      jump\t// out\n        /* \"#utility.yul\":4135:4357   */\n    tag_26:\n        /* \"#utility.yul\":4228:4232   */\n      0x00\n        /* \"#utility.yul\":4266:4268   */\n      0x20\n        /* \"#utility.yul\":4255:4264   */\n      dup3\n        /* \"#utility.yul\":4251:4269   */\n      add\n        /* \"#utility.yul\":4243:4269   */\n      swap1\n      pop\n        /* \"#utility.yul\":4279:4350   */\n      tag_208\n        /* \"#utility.yul\":4347:4348   */\n      0x00\n        /* \"#utility.yul\":4336:4345   */\n      dup4\n        /* \"#utility.yul\":4332:4349   */\n      add\n        /* \"#utility.yul\":4323:4329   */\n      dup5\n        /* \"#utility.yul\":4279:4350   */\n      tag_119\n      jump\t// in\n    tag_208:\n        /* \"#utility.yul\":4135:4357   */\n      swap3\n      swap2\n      pop\n      pop\n      jump\t// out\n        /* \"#utility.yul\":4363:4480   */\n    tag_120:\n        /* \"#utility.yul\":4472:4473   */\n      0x00\n        /* \"#utility.yul\":4469:4470   */\n      dup1\n        /* \"#utility.yul\":4462:4474   */\n      revert\n        /* \"#utility.yul\":4486:4603   */\n    tag_121:\n        /* \"#utility.yul\":4595:4596   */\n      0x00\n        /* \"#utility.yul\":4592:4593   */\n      dup1\n        /* \"#utility.yul\":4585:4597   */\n      revert\n        /* \"#utility.yul\":4609:4789   */\n    tag_122:\n        /* \"#utility.yul\":4657:4734   */\n      0x4e487b7100000000000000000000000000000000000000000000000000000000\n        /* \"#utility.yul\":4654:4655   */\n      0x00\n        /* \"#utility.yul\":4647:4735   */\n      mstore\n        /* \"#utility.yul\":4754:4758   */\n      0x41\n        /* \"#utility.yul\":4751:4752   */\n      0x04\n        /* \"#utility.yul\":4744:4759   */\n      mstore\n        /* \"#utility.yul\":4778:4782   */\n      0x24\n        /* \"#utility.yul\":4775:4776   */\n      0x00\n        /* \"#utility.yul\":4768:4783   */\n      revert\n        /* \"#utility.yul\":4795:5076   */\n    tag_123:\n        /* \"#utility.yul\":4878:4905   */\n      tag_213\n        /* \"#utility.yul\":4900:4904   */\n      dup3\n        /* \"#utility.yul\":4878:4905   */\n      tag_117\n      jump\t// in\n    tag_213:\n        /* \"#utility.yul\":4870:4876   */\n      dup2\n        /* \"#utility.yul\":4866:4906   */\n      add\n        /* \"#utility.yul\":5008:5014   */\n      dup2\n        /* \"#utility.yul\":4996:5006   */\n      dup2\n        /* \"#utility.yul\":4993:5015   */\n      lt\n        /* \"#utility.yul\":4972:4990   */\n      0xffffffffffffffff\n        /* \"#utility.yul\":4960:4970   */\n      dup3\n        /* \"#utility.yul\":4957:4991   */\n      gt\n        /* \"#utility.yul\":4954:5016   */\n      or\n        /* \"#utility.yul\":4951:5039   */\n      iszero\n      tag_214\n      jumpi\n        /* \"#utility.yul\":5019:5037   */\n      tag_215\n      tag_122\n      jump\t// in\n    tag_215:\n        /* \"#utility.yul\":4951:5039   */\n    tag_214:\n        /* \"#utility.yul\":5059:5069   */\n      dup1\n        /* \"#utility.yul\":5055:5057   */\n      0x40\n        /* \"#utility.yul\":5048:5070   */\n      mstore\n        /* \"#utility.yul\":4838:5076   */\n      pop\n        /* \"#utility.yul\":4795:5076   */\n      pop\n      pop\n      jump\t// out\n        /* \"#utility.yul\":5082:5211   */\n    tag_124:\n        /* \"#utility.yul\":5116:5122   */\n      0x00\n        /* \"#utility.yul\":5143:5163   */\n      tag_217\n      tag_103\n      jump\t// in\n    tag_217:\n        /* \"#utility.yul\":5133:5163   */\n      swap1\n      pop\n        /* \"#utility.yul\":5172:5205   */\n      tag_218\n        /* \"#utility.yul\":5200:5204   */\n      dup3\n        /* \"#utility.yul\":5192:5198   */\n      dup3\n        /* \"#utility.yul\":5172:5205   */\n      tag_123\n      jump\t// in\n    tag_218:\n        /* \"#utility.yul\":5082:5211   */\n      swap2\n      swap1\n      pop\n      jump\t// out\n        /* \"#utility.yul\":5217:5525   */\n    tag_125:\n        /* \"#utility.yul\":5279:5283   */\n      0x00\n        /* \"#utility.yul\":5369:5387   */\n      0xffffffffffffffff\n        /* \"#utility.yul\":5361:5367   */\n      dup3\n        /* \"#utility.yul\":5358:5388   */\n      gt\n        /* \"#utility.yul\":5355:5411   */\n      iszero\n      tag_220\n      jumpi\n        /* \"#utility.yul\":5391:5409   */\n      tag_221\n      tag_122\n      jump\t// in\n    tag_221:\n        /* \"#utility.yul\":5355:5411   */\n    tag_220:\n        /* \"#utility.yul\":5429:5458   */\n      tag_222\n        /* \"#utility.yul\":5451:5457   */\n      dup3\n        /* \"#utility.yul\":5429:5458   */\n      tag_117\n      jump\t// in\n    tag_222:\n        /* \"#utility.yul\":5421:5458   */\n      swap1\n      pop\n        /* \"#utility.yul\":5513:5517   */\n      0x20\n        /* \"#utility.yul\":5507:5511   */\n      dup2\n        /* \"#utility.yul\":5503:5518   */\n      add\n        /* \"#utility.yul\":5495:5518   */\n      swap1\n      pop\n        /* \"#utility.yul\":5217:5525   */\n      swap2\n      swap1\n      pop\n      jump\t// out\n        /* \"#utility.yul\":5531:5677   */\n    tag_126:\n        /* \"#utility.yul\":5628:5634   */\n      dup3\n        /* \"#utility.yul\":5623:5626   */\n      dup2\n        /* \"#utility.yul\":5618:5621   */\n      dup4\n        /* \"#utility.yul\":5605:5635   */\n      calldatacopy\n        /* \"#utility.yul\":5669:5670   */\n      0x00\n        /* \"#utility.yul\":5660:5666   */\n      dup4\n        /* \"#utility.yul\":5655:5658   */\n      dup4\n        /* \"#utility.yul\":5651:5667   */\n      add\n        /* \"#utility.yul\":5644:5671   */\n      mstore\n        /* \"#utility.yul\":5531:5677   */\n      pop\n      pop\n      pop\n      jump\t// out\n        /* \"#utility.yul\":5683:6108   */\n    tag_127:\n        /* \"#utility.yul\":5761:5766   */\n      0x00\n        /* \"#utility.yul\":5786:5852   */\n      tag_225\n        /* \"#utility.yul\":5802:5851   */\n      tag_226\n        /* \"#utility.yul\":5844:5850   */\n      dup5\n        /* \"#utility.yul\":5802:5851   */\n      tag_125\n      jump\t// in\n    tag_226:\n        /* \"#utility.yul\":5786:5852   */\n      tag_124\n      jump\t// in\n    tag_225:\n        /* \"#utility.yul\":5777:5852   */\n      swap1\n      pop\n        /* \"#utility.yul\":5875:5881   */\n      dup3\n        /* \"#utility.yul\":5868:5873   */\n      dup2\n        /* \"#utility.yul\":5861:5882   */\n      mstore\n        /* \"#utility.yul\":5913:5917   */\n      0x20\n        /* \"#utility.yul\":5906:5911   */\n      dup2\n        /* \"#utility.yul\":5902:5918   */\n      add\n        /* \"#utility.yul\":5951:5954   */\n      dup5\n        /* \"#utility.yul\":5942:5948   */\n      dup5\n        /* \"#utility.yul\":5937:5940   */\n      dup5\n        /* \"#utility.yul\":5933:5949   */\n      add\n        /* \"#utility.yul\":5930:5955   */\n      gt\n        /* \"#utility.yul\":5927:6039   */\n      iszero\n      tag_227\n      jumpi\n        /* \"#utility.yul\":5958:6037   */\n      tag_228\n      tag_121\n      jump\t// in\n    tag_228:\n        /* \"#utility.yul\":5927:6039   */\n    tag_227:\n        /* \"#utility.yul\":6048:6102   */\n      tag_229\n        /* \"#utility.yul\":6095:6101   */\n      dup5\n        /* \"#utility.yul\":6090:6093   */\n      dup3\n        /* \"#utility.yul\":6085:6088   */\n      dup6\n        /* \"#utility.yul\":6048:6102   */\n      tag_126\n      jump\t// in\n    tag_229:\n        /* \"#utility.yul\":5767:6108   */\n      pop\n        /* \"#utility.yul\":5683:6108   */\n      swap4\n      swap3\n      pop\n      pop\n      pop\n      jump\t// out\n        /* \"#utility.yul\":6128:6468   */\n    tag_128:\n        /* \"#utility.yul\":6184:6189   */\n      0x00\n        /* \"#utility.yul\":6233:6236   */\n      dup3\n        /* \"#utility.yul\":6226:6230   */\n      0x1f\n        /* \"#utility.yul\":6218:6224   */\n      dup4\n        /* \"#utility.yul\":6214:6231   */\n      add\n        /* \"#utility.yul\":6210:6237   */\n      slt\n        /* \"#utility.yul\":6200:6322   */\n      tag_231\n      jumpi\n        /* \"#utility.yul\":6241:6320   */\n      tag_232\n      tag_120\n      jump\t// in\n    tag_232:\n        /* \"#utility.yul\":6200:6322   */\n    tag_231:\n        /* \"#utility.yul\":6358:6364   */\n      dup2\n        /* \"#utility.yul\":6345:6365   */\n      calldataload\n        /* \"#utility.yul\":6383:6462   */\n      tag_233\n        /* \"#utility.yul\":6458:6461   */\n      dup5\n        /* \"#utility.yul\":6450:6456   */\n      dup3\n        /* \"#utility.yul\":6443:6447   */\n      0x20\n        /* \"#utility.yul\":6435:6441   */\n      dup7\n        /* \"#utility.yul\":6431:6448   */\n      add\n        /* \"#utility.yul\":6383:6462   */\n      tag_127\n      jump\t// in\n    tag_233:\n        /* \"#utility.yul\":6374:6462   */\n      swap2\n      pop\n        /* \"#utility.yul\":6190:6468   */\n      pop\n        /* \"#utility.yul\":6128:6468   */\n      swap3\n      swap2\n      pop\n      pop\n      jump\t// out\n        /* \"#utility.yul\":6474:7599   */\n    tag_29:\n        /* \"#utility.yul\":6580:6586   */\n      0x00\n        /* \"#utility.yul\":6588:6594   */\n      dup1\n        /* \"#utility.yul\":6596:6602   */\n      0x00\n        /* \"#utility.yul\":6604:6610   */\n      dup1\n        /* \"#utility.yul\":6653:6656   */\n      0x80\n        /* \"#utility.yul\":6641:6650   */\n      dup6\n        /* \"#utility.yul\":6632:6639   */\n      dup8\n        /* \"#utility.yul\":6628:6651   */\n      sub\n        /* \"#utility.yul\":6624:6657   */\n      slt\n        /* \"#utility.yul\":6621:6741   */\n      iszero\n      tag_235\n      jumpi\n        /* \"#utility.yul\":6660:6739   */\n      tag_236\n      tag_104\n      jump\t// in\n    tag_236:\n        /* \"#utility.yul\":6621:6741   */\n    tag_235:\n        /* \"#utility.yul\":6780:6781   */\n      0x00\n        /* \"#utility.yul\":6805:6858   */\n      tag_237\n        /* \"#utility.yul\":6850:6857   */\n      dup8\n        /* \"#utility.yul\":6841:6847   */\n      dup3\n        /* \"#utility.yul\":6830:6839   */\n      dup9\n        /* \"#utility.yul\":6826:6848   */\n      add\n        /* \"#utility.yul\":6805:6858   */\n      tag_108\n      jump\t// in\n    tag_237:\n        /* \"#utility.yul\":6795:6858   */\n      swap5\n      pop\n        /* \"#utility.yul\":6751:6868   */\n      pop\n        /* \"#utility.yul\":6935:6937   */\n      0x20\n        /* \"#utility.yul\":6924:6933   */\n      dup6\n        /* \"#utility.yul\":6920:6938   */\n      add\n        /* \"#utility.yul\":6907:6939   */\n      calldataload\n        /* \"#utility.yul\":6966:6984   */\n      0xffffffffffffffff\n        /* \"#utility.yul\":6958:6964   */\n      dup2\n        /* \"#utility.yul\":6955:6985   */\n      gt\n        /* \"#utility.yul\":6952:7069   */\n      iszero\n      tag_238\n      jumpi\n        /* \"#utility.yul\":6988:7067   */\n      tag_239\n      tag_105\n      jump\t// in\n    tag_239:\n        /* \"#utility.yul\":6952:7069   */\n    tag_238:\n        /* \"#utility.yul\":7093:7156   */\n      tag_240\n        /* \"#utility.yul\":7148:7155   */\n      dup8\n        /* \"#utility.yul\":7139:7145   */\n      dup3\n        /* \"#utility.yul\":7128:7137   */\n      dup9\n        /* \"#utility.yul\":7124:7146   */\n      add\n        /* \"#utility.yul\":7093:7156   */\n      tag_128\n      jump\t// in\n    tag_240:\n        /* \"#utility.yul\":7083:7156   */\n      swap4\n      pop\n        /* \"#utility.yul\":6878:7166   */\n      pop\n        /* \"#utility.yul\":7205:7207   */\n      0x40\n        /* \"#utility.yul\":7231:7284   */\n      tag_241\n        /* \"#utility.yul\":7276:7283   */\n      dup8\n        /* \"#utility.yul\":7267:7273   */\n      dup3\n        /* \"#utility.yul\":7256:7265   */\n      dup9\n        /* \"#utility.yul\":7252:7274   */\n      add\n        /* \"#utility.yul\":7231:7284   */\n      tag_108\n      jump\t// in\n    tag_241:\n        /* \"#utility.yul\":7221:7284   */\n      swap3\n      pop\n        /* \"#utility.yul\":7176:7294   */\n      pop\n        /* \"#utility.yul\":7361:7363   */\n      0x60\n        /* \"#utility.yul\":7350:7359   */\n      dup6\n        /* \"#utility.yul\":7346:7364   */\n      add\n        /* \"#utility.yul\":7333:7365   */\n      calldataload\n        /* \"#utility.yul\":7392:7410   */\n      0xffffffffffffffff\n        /* \"#utility.yul\":7384:7390   */\n      dup2\n        /* \"#utility.yul\":7381:7411   */\n      gt\n        /* \"#utility.yul\":7378:7495   */\n      iszero\n      tag_242\n      jumpi\n        /* \"#utility.yul\":7414:7493   */\n      tag_243\n      tag_105\n      jump\t// in\n    tag_243:\n        /* \"#utility.yul\":7378:7495   */\n    tag_242:\n        /* \"#utility.yul\":7519:7582   */\n      tag_244\n        /* \"#utility.yul\":7574:7581   */\n      dup8\n        /* \"#utility.yul\":7565:7571   */\n      dup3\n        /* \"#utility.yul\":7554:7563   */\n      dup9\n        /* \"#utility.yul\":7550:7572   */\n      add\n        /* \"#utility.yul\":7519:7582   */\n      tag_128\n      jump\t// in\n    tag_244:\n        /* \"#utility.yul\":7509:7582   */\n      swap2\n      pop\n        /* \"#utility.yul\":7304:7592   */\n      pop\n        /* \"#utility.yul\":6474:7599   */\n      swap3\n      swap6\n      swap2\n      swap5\n      pop\n      swap3\n      pop\n      jump\t// out\n        /* \"#utility.yul\":7605:7934   */\n    tag_36:\n        /* \"#utility.yul\":7664:7670   */\n      0x00\n        /* \"#utility.yul\":7713:7715   */\n      0x20\n        /* \"#utility.yul\":7701:7710   */\n      dup3\n        /* \"#utility.yul\":7692:7699   */\n      dup5\n        /* \"#utility.yul\":7688:7711   */\n      sub\n        /* \"#utility.yul\":7684:7716   */\n      slt\n        /* \"#utility.yul\":7681:7800   */\n      iszero\n      tag_246\n      jumpi\n        /* \"#utility.yul\":7719:7798   */\n      tag_247\n      tag_104\n      jump\t// in\n    tag_247:\n        /* \"#utility.yul\":7681:7800   */\n    tag_246:\n        /* \"#utility.yul\":7839:7840   */\n      0x00\n        /* \"#utility.yul\":7864:7917   */\n      tag_248\n        /* \"#utility.yul\":7909:7916   */\n      dup5\n        /* \"#utility.yul\":7900:7906   */\n      dup3\n        /* \"#utility.yul\":7889:7898   */\n      dup6\n        /* \"#utility.yul\":7885:7907   */\n      add\n        /* \"#utility.yul\":7864:7917   */\n      tag_112\n      jump\t// in\n    tag_248:\n        /* \"#utility.yul\":7854:7917   */\n      swap2\n      pop\n        /* \"#utility.yul\":7810:7927   */\n      pop\n        /* \"#utility.yul\":7605:7934   */\n      swap3\n      swap2\n      pop\n      pop\n      jump\t// out\n        /* \"#utility.yul\":7940:8112   */\n    tag_129:\n        /* \"#utility.yul\":8080:8104   */\n      0x50726f6475637420646f6573206e6f7420657869737400000000000000000000\n        /* \"#utility.yul\":8076:8077   */\n      0x00\n        /* \"#utility.yul\":8068:8074   */\n      dup3\n        /* \"#utility.yul\":8064:8078   */\n      add\n        /* \"#utility.yul\":8057:8105   */\n      mstore\n        /* \"#utility.yul\":7940:8112   */\n      pop\n      jump\t// out\n        /* \"#utility.yul\":8118:8484   */\n    tag_130:\n        /* \"#utility.yul\":8260:8263   */\n      0x00\n        /* \"#utility.yul\":8281:8348   */\n      tag_251\n        /* \"#utility.yul\":8345:8347   */\n      0x16\n        /* \"#utility.yul\":8340:8343   */\n      dup4\n        /* \"#utility.yul\":8281:8348   */\n      tag_115\n      jump\t// in\n    tag_251:\n        /* \"#utility.yul\":8274:8348   */\n      swap2\n      pop\n        /* \"#utility.yul\":8357:8450   */\n      tag_252\n        /* \"#utility.yul\":8446:8449   */\n      dup3\n        /* \"#utility.yul\":8357:8450   */\n      tag_129\n      jump\t// in\n    tag_252:\n        /* \"#utility.yul\":8475:8477   */\n      0x20\n        /* \"#utility.yul\":8470:8473   */\n      dup3\n        /* \"#utility.yul\":8466:8478   */\n      add\n        /* \"#utility.yul\":8459:8478   */\n      swap1\n      pop\n        /* \"#utility.yul\":8118:8484   */\n      swap2\n      swap1\n      pop\n      jump\t// out\n        /* \"#utility.yul\":8490:8909   */\n    tag_41:\n        /* \"#utility.yul\":8656:8660   */\n      0x00\n        /* \"#utility.yul\":8694:8696   */\n      0x20\n        /* \"#utility.yul\":8683:8692   */\n      dup3\n        /* \"#utility.yul\":8679:8697   */\n      add\n        /* \"#utility.yul\":8671:8697   */\n      swap1\n      pop\n        /* \"#utility.yul\":8743:8752   */\n      dup2\n        /* \"#utility.yul\":8737:8741   */\n      dup2\n        /* \"#utility.yul\":8733:8753   */\n      sub\n        /* \"#utility.yul\":8729:8730   */\n      0x00\n        /* \"#utility.yul\":8718:8727   */\n      dup4\n        /* \"#utility.yul\":8714:8731   */\n      add\n        /* \"#utility.yul\":8707:8754   */\n      mstore\n        /* \"#utility.yul\":8771:8902   */\n      tag_254\n        /* \"#utility.yul\":8897:8901   */\n      dup2\n        /* \"#utility.yul\":8771:8902   */\n      tag_130\n      jump\t// in\n    tag_254:\n        /* \"#utility.yul\":8763:8902   */\n      swap1\n      pop\n        /* \"#utility.yul\":8490:8909   */\n      swap2\n      swap1\n      pop\n      jump\t// out\n        /* \"#utility.yul\":8915:9145   */\n    tag_131:\n        /* \"#utility.yul\":9055:9089   */\n      0x4f6e6c79207468652070726f64756374206f776e65722063616e2073656c6c20\n        /* \"#utility.yul\":9051:9052   */\n      0x00\n        /* \"#utility.yul\":9043:9049   */\n      dup3\n        /* \"#utility.yul\":9039:9053   */\n      add\n        /* \"#utility.yul\":9032:9090   */\n      mstore\n        /* \"#utility.yul\":9124:9137   */\n      0x7468652070726f64756374000000000000000000000000000000000000000000\n        /* \"#utility.yul\":9119:9121   */\n      0x20\n        /* \"#utility.yul\":9111:9117   */\n      dup3\n        /* \"#utility.yul\":9107:9122   */\n      add\n        /* \"#utility.yul\":9100:9138   */\n      mstore\n        /* \"#utility.yul\":8915:9145   */\n      pop\n      jump\t// out\n        /* \"#utility.yul\":9151:9517   */\n    tag_132:\n        /* \"#utility.yul\":9293:9296   */\n      0x00\n        /* \"#utility.yul\":9314:9381   */\n      tag_257\n        /* \"#utility.yul\":9378:9380   */\n      0x2b\n        /* \"#utility.yul\":9373:9376   */\n      dup4\n        /* \"#utility.yul\":9314:9381   */\n      tag_115\n      jump\t// in\n    tag_257:\n        /* \"#utility.yul\":9307:9381   */\n      swap2\n      pop\n        /* \"#utility.yul\":9390:9483   */\n      tag_258\n        /* \"#utility.yul\":9479:9482   */\n      dup3\n        /* \"#utility.yul\":9390:9483   */\n      tag_131\n      jump\t// in\n    tag_258:\n        /* \"#utility.yul\":9508:9510   */\n      0x40\n        /* \"#utility.yul\":9503:9506   */\n      dup3\n        /* \"#utility.yul\":9499:9511   */\n      add\n        /* \"#utility.yul\":9492:9511   */\n      swap1\n      pop\n        /* \"#utility.yul\":9151:9517   */\n      swap2\n      swap1\n      pop\n      jump\t// out\n        /* \"#utility.yul\":9523:9942   */\n    tag_44:\n        /* \"#utility.yul\":9689:9693   */\n      0x00\n        /* \"#utility.yul\":9727:9729   */\n      0x20\n        /* \"#utility.yul\":9716:9725   */\n      dup3\n        /* \"#utility.yul\":9712:9730   */\n      add\n        /* \"#utility.yul\":9704:9730   */\n      swap1\n      pop\n        /* \"#utility.yul\":9776:9785   */\n      dup2\n        /* \"#utility.yul\":9770:9774   */\n      dup2\n        /* \"#utility.yul\":9766:9786   */\n      sub\n        /* \"#utility.yul\":9762:9763   */\n      0x00\n        /* \"#utility.yul\":9751:9760   */\n      dup4\n        /* \"#utility.yul\":9747:9764   */\n      add\n        /* \"#utility.yul\":9740:9787   */\n      mstore\n        /* \"#utility.yul\":9804:9935   */\n      tag_260\n        /* \"#utility.yul\":9930:9934   */\n      dup2\n        /* \"#utility.yul\":9804:9935   */\n      tag_132\n      jump\t// in\n    tag_260:\n        /* \"#utility.yul\":9796:9935   */\n      swap1\n      pop\n        /* \"#utility.yul\":9523:9942   */\n      swap2\n      swap1\n      pop\n      jump\t// out\n        /* \"#utility.yul\":9948:10172   */\n    tag_133:\n        /* \"#utility.yul\":10088:10122   */\n      0x42757965722073686f756c64206e6f74206265207468652063757272656e7420\n        /* \"#utility.yul\":10084:10085   */\n      0x00\n        /* \"#utility.yul\":10076:10082   */\n      dup3\n        /* \"#utility.yul\":10072:10086   */\n      add\n        /* \"#utility.yul\":10065:10123   */\n      mstore\n        /* \"#utility.yul\":10157:10164   */\n      0x6f776e6572000000000000000000000000000000000000000000000000000000\n        /* \"#utility.yul\":10152:10154   */\n      0x20\n        /* \"#utility.yul\":10144:10150   */\n      dup3\n        /* \"#utility.yul\":10140:10155   */\n      add\n        /* \"#utility.yul\":10133:10165   */\n      mstore\n        /* \"#utility.yul\":9948:10172   */\n      pop\n      jump\t// out\n        /* \"#utility.yul\":10178:10544   */\n    tag_134:\n        /* \"#utility.yul\":10320:10323   */\n      0x00\n        /* \"#utility.yul\":10341:10408   */\n      tag_263\n        /* \"#utility.yul\":10405:10407   */\n      0x25\n        /* \"#utility.yul\":10400:10403   */\n      dup4\n        /* \"#utility.yul\":10341:10408   */\n      tag_115\n      jump\t// in\n    tag_263:\n        /* \"#utility.yul\":10334:10408   */\n      swap2\n      pop\n        /* \"#utility.yul\":10417:10510   */\n      tag_264\n        /* \"#utility.yul\":10506:10509   */\n      dup3\n        /* \"#utility.yul\":10417:10510   */\n      tag_133\n      jump\t// in\n    tag_264:\n        /* \"#utility.yul\":10535:10537   */\n      0x40\n        /* \"#utility.yul\":10530:10533   */\n      dup3\n        /* \"#utility.yul\":10526:10538   */\n      add\n        /* \"#utility.yul\":10519:10538   */\n      swap1\n      pop\n        /* \"#utility.yul\":10178:10544   */\n      swap2\n      swap1\n      pop\n      jump\t// out\n        /* \"#utility.yul\":10550:10969   */\n    tag_47:\n        /* \"#utility.yul\":10716:10720   */\n      0x00\n        /* \"#utility.yul\":10754:10756   */\n      0x20\n        /* \"#utility.yul\":10743:10752   */\n      dup3\n        /* \"#utility.yul\":10739:10757   */\n      add\n        /* \"#utility.yul\":10731:10757   */\n      swap1\n      pop\n        /* \"#utility.yul\":10803:10812   */\n      dup2\n        /* \"#utility.yul\":10797:10801   */\n      dup2\n        /* \"#utility.yul\":10793:10813   */\n      sub\n        /* \"#utility.yul\":10789:10790   */\n      0x00\n        /* \"#utility.yul\":10778:10787   */\n      dup4\n        /* \"#utility.yul\":10774:10791   */\n      add\n        /* \"#utility.yul\":10767:10814   */\n      mstore\n        /* \"#utility.yul\":10831:10962   */\n      tag_266\n        /* \"#utility.yul\":10957:10961   */\n      dup2\n        /* \"#utility.yul\":10831:10962   */\n      tag_134\n      jump\t// in\n    tag_266:\n        /* \"#utility.yul\":10823:10962   */\n      swap1\n      pop\n        /* \"#utility.yul\":10550:10969   */\n      swap2\n      swap1\n      pop\n      jump\t// out\n        /* \"#utility.yul\":10975:11197   */\n    tag_49:\n        /* \"#utility.yul\":11068:11072   */\n      0x00\n        /* \"#utility.yul\":11106:11108   */\n      0x20\n        /* \"#utility.yul\":11095:11104   */\n      dup3\n        /* \"#utility.yul\":11091:11109   */\n      add\n        /* \"#utility.yul\":11083:11109   */\n      swap1\n      pop\n        /* \"#utility.yul\":11119:11190   */\n      tag_268\n        /* \"#utility.yul\":11187:11188   */\n      0x00\n        /* \"#utility.yul\":11176:11185   */\n      dup4\n        /* \"#utility.yul\":11172:11189   */\n      add\n        /* \"#utility.yul\":11163:11169   */\n      dup5\n        /* \"#utility.yul\":11119:11190   */\n      tag_113\n      jump\t// in\n    tag_268:\n        /* \"#utility.yul\":10975:11197   */\n      swap3\n      swap2\n      pop\n      pop\n      jump\t// out\n        /* \"#utility.yul\":11203:11293   */\n    tag_135:\n        /* \"#utility.yul\":11237:11244   */\n      0x00\n        /* \"#utility.yul\":11280:11285   */\n      dup2\n        /* \"#utility.yul\":11273:11286   */\n      iszero\n        /* \"#utility.yul\":11266:11287   */\n      iszero\n        /* \"#utility.yul\":11255:11287   */\n      swap1\n      pop\n        /* \"#utility.yul\":11203:11293   */\n      swap2\n      swap1\n      pop\n      jump\t// out\n        /* \"#utility.yul\":11299:11415   */\n    tag_136:\n        /* \"#utility.yul\":11369:11390   */\n      tag_271\n        /* \"#utility.yul\":11384:11389   */\n      dup2\n        /* \"#utility.yul\":11369:11390   */\n      tag_135\n      jump\t// in\n    tag_271:\n        /* \"#utility.yul\":11362:11367   */\n      dup2\n        /* \"#utility.yul\":11359:11391   */\n      eq\n        /* \"#utility.yul\":11349:11409   */\n      tag_272\n      jumpi\n        /* \"#utility.yul\":11405:11406   */\n      0x00\n        /* \"#utility.yul\":11402:11403   */\n      dup1\n        /* \"#utility.yul\":11395:11407   */\n      revert\n        /* \"#utility.yul\":11349:11409   */\n    tag_272:\n        /* \"#utility.yul\":11299:11415   */\n      pop\n      jump\t// out\n        /* \"#utility.yul\":11421:11558   */\n    tag_137:\n        /* \"#utility.yul\":11475:11480   */\n      0x00\n        /* \"#utility.yul\":11506:11512   */\n      dup2\n        /* \"#utility.yul\":11500:11513   */\n      mload\n        /* \"#utility.yul\":11491:11513   */\n      swap1\n      pop\n        /* \"#utility.yul\":11522:11552   */\n      tag_274\n        /* \"#utility.yul\":11546:11551   */\n      dup2\n        /* \"#utility.yul\":11522:11552   */\n      tag_136\n      jump\t// in\n    tag_274:\n        /* \"#utility.yul\":11421:11558   */\n      swap3\n      swap2\n      pop\n      pop\n      jump\t// out\n        /* \"#utility.yul\":11564:11909   */\n    tag_53:\n        /* \"#utility.yul\":11631:11637   */\n      0x00\n        /* \"#utility.yul\":11680:11682   */\n      0x20\n        /* \"#utility.yul\":11668:11677   */\n      dup3\n        /* \"#utility.yul\":11659:11666   */\n      dup5\n        /* \"#utility.yul\":11655:11678   */\n      sub\n        /* \"#utility.yul\":11651:11683   */\n      slt\n        /* \"#utility.yul\":11648:11767   */\n      iszero\n      tag_276\n      jumpi\n        /* \"#utility.yul\":11686:11765   */\n      tag_277\n      tag_104\n      jump\t// in\n    tag_277:\n        /* \"#utility.yul\":11648:11767   */\n    tag_276:\n        /* \"#utility.yul\":11806:11807   */\n      0x00\n        /* \"#utility.yul\":11831:11892   */\n      tag_278\n        /* \"#utility.yul\":11884:11891   */\n      dup5\n        /* \"#utility.yul\":11875:11881   */\n      dup3\n        /* \"#utility.yul\":11864:11873   */\n      dup6\n        /* \"#utility.yul\":11860:11882   */\n      add\n        /* \"#utility.yul\":11831:11892   */\n      tag_137\n      jump\t// in\n    tag_278:\n        /* \"#utility.yul\":11821:11892   */\n      swap2\n      pop\n        /* \"#utility.yul\":11777:11902   */\n      pop\n        /* \"#utility.yul\":11564:11909   */\n      swap3\n      swap2\n      pop\n      pop\n      jump\t// out\n        /* \"#utility.yul\":11915:12088   */\n    tag_138:\n        /* \"#utility.yul\":12055:12080   */\n      0x50726f64756374206973206e6f74207665726966696564000000000000000000\n        /* \"#utility.yul\":12051:12052   */\n      0x00\n        /* \"#utility.yul\":12043:12049   */\n      dup3\n        /* \"#utility.yul\":12039:12053   */\n      add\n        /* \"#utility.yul\":12032:12081   */\n      mstore\n        /* \"#utility.yul\":11915:12088   */\n      pop\n      jump\t// out\n        /* \"#utility.yul\":12094:12460   */\n    tag_139:\n        /* \"#utility.yul\":12236:12239   */\n      0x00\n        /* \"#utility.yul\":12257:12324   */\n      tag_281\n        /* \"#utility.yul\":12321:12323   */\n      0x17\n        /* \"#utility.yul\":12316:12319   */\n      dup4\n        /* \"#utility.yul\":12257:12324   */\n      tag_115\n      jump\t// in\n    tag_281:\n        /* \"#utility.yul\":12250:12324   */\n      swap2\n      pop\n        /* \"#utility.yul\":12333:12426   */\n      tag_282\n        /* \"#utility.yul\":12422:12425   */\n      dup3\n        /* \"#utility.yul\":12333:12426   */\n      tag_138\n      jump\t// in\n    tag_282:\n        /* \"#utility.yul\":12451:12453   */\n      0x20\n        /* \"#utility.yul\":12446:12449   */\n      dup3\n        /* \"#utility.yul\":12442:12454   */\n      add\n        /* \"#utility.yul\":12435:12454   */\n      swap1\n      pop\n        /* \"#utility.yul\":12094:12460   */\n      swap2\n      swap1\n      pop\n      jump\t// out\n        /* \"#utility.yul\":12466:12885   */\n    tag_56:\n        /* \"#utility.yul\":12632:12636   */\n      0x00\n        /* \"#utility.yul\":12670:12672   */\n      0x20\n        /* \"#utility.yul\":12659:12668   */\n      dup3\n        /* \"#utility.yul\":12655:12673   */\n      add\n        /* \"#utility.yul\":12647:12673   */\n      swap1\n      pop\n        /* \"#utility.yul\":12719:12728   */\n      dup2\n        /* \"#utility.yul\":12713:12717   */\n      dup2\n        /* \"#utility.yul\":12709:12729   */\n      sub\n        /* \"#utility.yul\":12705:12706   */\n      0x00\n        /* \"#utility.yul\":12694:12703   */\n      dup4\n        /* \"#utility.yul\":12690:12707   */\n      add\n        /* \"#utility.yul\":12683:12730   */\n      mstore\n        /* \"#utility.yul\":12747:12878   */\n      tag_284\n        /* \"#utility.yul\":12873:12877   */\n      dup2\n        /* \"#utility.yul\":12747:12878   */\n      tag_139\n      jump\t// in\n    tag_284:\n        /* \"#utility.yul\":12739:12878   */\n      swap1\n      pop\n        /* \"#utility.yul\":12466:12885   */\n      swap2\n      swap1\n      pop\n      jump\t// out\n        /* \"#utility.yul\":12891:13223   */\n    tag_58:\n        /* \"#utility.yul\":13012:13016   */\n      0x00\n        /* \"#utility.yul\":13050:13052   */\n      0x40\n        /* \"#utility.yul\":13039:13048   */\n      dup3\n        /* \"#utility.yul\":13035:13053   */\n      add\n        /* \"#utility.yul\":13027:13053   */\n      swap1\n      pop\n        /* \"#utility.yul\":13063:13134   */\n      tag_286\n        /* \"#utility.yul\":13131:13132   */\n      0x00\n        /* \"#utility.yul\":13120:13129   */\n      dup4\n        /* \"#utility.yul\":13116:13133   */\n      add\n        /* \"#utility.yul\":13107:13113   */\n      dup6\n        /* \"#utility.yul\":13063:13134   */\n      tag_113\n      jump\t// in\n    tag_286:\n        /* \"#utility.yul\":13144:13216   */\n      tag_287\n        /* \"#utility.yul\":13212:13214   */\n      0x20\n        /* \"#utility.yul\":13201:13210   */\n      dup4\n        /* \"#utility.yul\":13197:13215   */\n      add\n        /* \"#utility.yul\":13188:13194   */\n      dup5\n        /* \"#utility.yul\":13144:13216   */\n      tag_119\n      jump\t// in\n    tag_287:\n        /* \"#utility.yul\":12891:13223   */\n      swap4\n      swap3\n      pop\n      pop\n      pop\n      jump\t// out\n        /* \"#utility.yul\":13229:13409   */\n    tag_140:\n        /* \"#utility.yul\":13277:13354   */\n      0x4e487b7100000000000000000000000000000000000000000000000000000000\n        /* \"#utility.yul\":13274:13275   */\n      0x00\n        /* \"#utility.yul\":13267:13355   */\n      mstore\n        /* \"#utility.yul\":13374:13378   */\n      0x22\n        /* \"#utility.yul\":13371:13372   */\n      0x04\n        /* \"#utility.yul\":13364:13379   */\n      mstore\n        /* \"#utility.yul\":13398:13402   */\n      0x24\n        /* \"#utility.yul\":13395:13396   */\n      0x00\n        /* \"#utility.yul\":13388:13403   */\n      revert\n        /* \"#utility.yul\":13415:13735   */\n    tag_66:\n        /* \"#utility.yul\":13459:13465   */\n      0x00\n        /* \"#utility.yul\":13496:13497   */\n      0x02\n        /* \"#utility.yul\":13490:13494   */\n      dup3\n        /* \"#utility.yul\":13486:13498   */\n      div\n        /* \"#utility.yul\":13476:13498   */\n      swap1\n      pop\n        /* \"#utility.yul\":13543:13544   */\n      0x01\n        /* \"#utility.yul\":13537:13541   */\n      dup3\n        /* \"#utility.yul\":13533:13545   */\n      and\n        /* \"#utility.yul\":13564:13582   */\n      dup1\n        /* \"#utility.yul\":13554:13635   */\n      tag_290\n      jumpi\n        /* \"#utility.yul\":13620:13624   */\n      0x7f\n        /* \"#utility.yul\":13612:13618   */\n      dup3\n        /* \"#utility.yul\":13608:13625   */\n      and\n        /* \"#utility.yul\":13598:13625   */\n      swap2\n      pop\n        /* \"#utility.yul\":13554:13635   */\n    tag_290:\n        /* \"#utility.yul\":13682:13684   */\n      0x20\n        /* \"#utility.yul\":13674:13680   */\n      dup3\n        /* \"#utility.yul\":13671:13685   */\n      lt\n        /* \"#utility.yul\":13651:13669   */\n      dup2\n        /* \"#utility.yul\":13648:13686   */\n      sub\n        /* \"#utility.yul\":13645:13729   */\n      tag_291\n      jumpi\n        /* \"#utility.yul\":13701:13719   */\n      tag_292\n      tag_140\n      jump\t// in\n    tag_292:\n        /* \"#utility.yul\":13645:13729   */\n    tag_291:\n        /* \"#utility.yul\":13466:13735   */\n      pop\n        /* \"#utility.yul\":13415:13735   */\n      swap2\n      swap1\n      pop\n      jump\t// out\n        /* \"#utility.yul\":13741:13913   */\n    tag_141:\n        /* \"#utility.yul\":13881:13905   */\n      0x50726f6475637420616c72656164792065786973747300000000000000000000\n        /* \"#utility.yul\":13877:13878   */\n      0x00\n        /* \"#utility.yul\":13869:13875   */\n      dup3\n        /* \"#utility.yul\":13865:13879   */\n      add\n        /* \"#utility.yul\":13858:13906   */\n      mstore\n        /* \"#utility.yul\":13741:13913   */\n      pop\n      jump\t// out\n        /* \"#utility.yul\":13919:14285   */\n    tag_142:\n        /* \"#utility.yul\":14061:14064   */\n      0x00\n        /* \"#utility.yul\":14082:14149   */\n      tag_295\n        /* \"#utility.yul\":14146:14148   */\n      0x16\n        /* \"#utility.yul\":14141:14144   */\n      dup4\n        /* \"#utility.yul\":14082:14149   */\n      tag_115\n      jump\t// in\n    tag_295:\n        /* \"#utility.yul\":14075:14149   */\n      swap2\n      pop\n        /* \"#utility.yul\":14158:14251   */\n      tag_296\n        /* \"#utility.yul\":14247:14250   */\n      dup3\n        /* \"#utility.yul\":14158:14251   */\n      tag_141\n      jump\t// in\n    tag_296:\n        /* \"#utility.yul\":14276:14278   */\n      0x20\n        /* \"#utility.yul\":14271:14274   */\n      dup3\n        /* \"#utility.yul\":14267:14279   */\n      add\n        /* \"#utility.yul\":14260:14279   */\n      swap1\n      pop\n        /* \"#utility.yul\":13919:14285   */\n      swap2\n      swap1\n      pop\n      jump\t// out\n        /* \"#utility.yul\":14291:14710   */\n    tag_82:\n        /* \"#utility.yul\":14457:14461   */\n      0x00\n        /* \"#utility.yul\":14495:14497   */\n      0x20\n        /* \"#utility.yul\":14484:14493   */\n      dup3\n        /* \"#utility.yul\":14480:14498   */\n      add\n        /* \"#utility.yul\":14472:14498   */\n      swap1\n      pop\n        /* \"#utility.yul\":14544:14553   */\n      dup2\n        /* \"#utility.yul\":14538:14542   */\n      dup2\n        /* \"#utility.yul\":14534:14554   */\n      sub\n        /* \"#utility.yul\":14530:14531   */\n      0x00\n        /* \"#utility.yul\":14519:14528   */\n      dup4\n        /* \"#utility.yul\":14515:14532   */\n      add\n        /* \"#utility.yul\":14508:14555   */\n      mstore\n        /* \"#utility.yul\":14572:14703   */\n      tag_298\n        /* \"#utility.yul\":14698:14702   */\n      dup2\n        /* \"#utility.yul\":14572:14703   */\n      tag_142\n      jump\t// in\n    tag_298:\n        /* \"#utility.yul\":14564:14703   */\n      swap1\n      pop\n        /* \"#utility.yul\":14291:14710   */\n      swap2\n      swap1\n      pop\n      jump\t// out\n        /* \"#utility.yul\":14716:14857   */\n    tag_143:\n        /* \"#utility.yul\":14765:14769   */\n      0x00\n        /* \"#utility.yul\":14788:14791   */\n      dup2\n        /* \"#utility.yul\":14780:14791   */\n      swap1\n      pop\n        /* \"#utility.yul\":14811:14814   */\n      dup2\n        /* \"#utility.yul\":14808:14809   */\n      0x00\n        /* \"#utility.yul\":14801:14815   */\n      mstore\n        /* \"#utility.yul\":14845:14849   */\n      0x20\n        /* \"#utility.yul\":14842:14843   */\n      0x00\n        /* \"#utility.yul\":14832:14850   */\n      keccak256\n        /* \"#utility.yul\":14824:14850   */\n      swap1\n      pop\n        /* \"#utility.yul\":14716:14857   */\n      swap2\n      swap1\n      pop\n      jump\t// out\n        /* \"#utility.yul\":14863:14956   */\n    tag_144:\n        /* \"#utility.yul\":14900:14906   */\n      0x00\n        /* \"#utility.yul\":14947:14949   */\n      0x20\n        /* \"#utility.yul\":14942:14944   */\n      0x1f\n        /* \"#utility.yul\":14935:14940   */\n      dup4\n        /* \"#utility.yul\":14931:14945   */\n      add\n        /* \"#utility.yul\":14927:14950   */\n      div\n        /* \"#utility.yul\":14917:14950   */\n      swap1\n      pop\n        /* \"#utility.yul\":14863:14956   */\n      swap2\n      swap1\n      pop\n      jump\t// out\n        /* \"#utility.yul\":14962:15069   */\n    tag_145:\n        /* \"#utility.yul\":15006:15014   */\n      0x00\n        /* \"#utility.yul\":15056:15061   */\n      dup3\n        /* \"#utility.yul\":15050:15054   */\n      dup3\n        /* \"#utility.yul\":15046:15062   */\n      shl\n        /* \"#utility.yul\":15025:15062   */\n      swap1\n      pop\n        /* \"#utility.yul\":14962:15069   */\n      swap3\n      swap2\n      pop\n      pop\n      jump\t// out\n        /* \"#utility.yul\":15075:15468   */\n    tag_146:\n        /* \"#utility.yul\":15144:15150   */\n      0x00\n        /* \"#utility.yul\":15194:15195   */\n      0x08\n        /* \"#utility.yul\":15182:15192   */\n      dup4\n        /* \"#utility.yul\":15178:15196   */\n      mul\n        /* \"#utility.yul\":15217:15314   */\n      tag_303\n        /* \"#utility.yul\":15247:15313   */\n      0xffffffffffffffffffffffffffffffffffffffffffffffffffffffffffffffff\n        /* \"#utility.yul\":15236:15245   */\n      dup3\n        /* \"#utility.yul\":15217:15314   */\n      tag_145\n      jump\t// in\n    tag_303:\n        /* \"#utility.yul\":15335:15374   */\n      tag_304\n        /* \"#utility.yul\":15365:15373   */\n      dup7\n        /* \"#utility.yul\":15354:15363   */\n      dup4\n        /* \"#utility.yul\":15335:15374   */\n      tag_145\n      jump\t// in\n    tag_304:\n        /* \"#utility.yul\":15323:15374   */\n      swap6\n      pop\n        /* \"#utility.yul\":15407:15411   */\n      dup1\n        /* \"#utility.yul\":15403:15412   */\n      not\n        /* \"#utility.yul\":15396:15401   */\n      dup5\n        /* \"#utility.yul\":15392:15413   */\n      and\n        /* \"#utility.yul\":15383:15413   */\n      swap4\n      pop\n        /* \"#utility.yul\":15456:15460   */\n      dup1\n        /* \"#utility.yul\":15446:15454   */\n      dup7\n        /* \"#utility.yul\":15442:15461   */\n      and\n        /* \"#utility.yul\":15435:15440   */\n      dup5\n        /* \"#utility.yul\":15432:15462   */\n      or\n        /* \"#utility.yul\":15422:15462   */\n      swap3\n      pop\n        /* \"#utility.yul\":15151:15468   */\n      pop\n      pop\n        /* \"#utility.yul\":15075:15468   */\n      swap4\n      swap3\n      pop\n      pop\n      pop\n      jump\t// out\n        /* \"#utility.yul\":15474:15534   */\n    tag_147:\n        /* \"#utility.yul\":15502:15505   */\n      0x00\n        /* \"#utility.yul\":15523:15528   */\n      dup2\n        /* \"#utility.yul\":15516:15528   */\n      swap1\n      pop\n        /* \"#utility.yul\":15474:15534   */\n      swap2\n      swap1\n      pop\n      jump\t// out\n        /* \"#utility.yul\":15540:15682   */\n    tag_148:\n        /* \"#utility.yul\":15590:15599   */\n      0x00\n        /* \"#utility.yul\":15623:15676   */\n      tag_307\n        /* \"#utility.yul\":15641:15675   */\n      tag_308\n        /* \"#utility.yul\":15650:15674   */\n      tag_309\n        /* \"#utility.yul\":15668:15673   */\n      dup5\n        /* \"#utility.yul\":15650:15674   */\n      tag_106\n      jump\t// in\n    tag_309:\n        /* \"#utility.yul\":15641:15675   */\n      tag_147\n      jump\t// in\n    tag_308:\n        /* \"#utility.yul\":15623:15676   */\n      tag_106\n      jump\t// in\n    tag_307:\n        /* \"#utility.yul\":15610:15676   */\n      swap1\n      pop\n        /* \"#utility.yul\":15540:15682   */\n      swap2\n      swap1\n      pop\n      jump\t// out\n        /* \"#utility.yul\":15688:15763   */\n    tag_149:\n        /* \"#utility.yul\":15731:15734   */\n      0x00\n        /* \"#utility.yul\":15752:15757   */\n      dup2\n        /* \"#utility.yul\":15745:15757   */\n      swap1\n      pop\n        /* \"#utility.yul\":15688:15763   */\n      swap2\n      swap1\n      pop\n      jump\t// out\n        /* \"#utility.yul\":15769:16038   */\n    tag_150:\n        /* \"#utility.yul\":15879:15918   */\n      tag_312\n        /* \"#utility.yul\":15910:15917   */\n      dup4\n        /* \"#utility.yul\":15879:15918   */\n      tag_148\n      jump\t// in\n    tag_312:\n        /* \"#utility.yul\":15940:16031   */\n      tag_313\n        /* \"#utility.yul\":15989:16030   */\n      tag_314\n        /* \"#utility.yul\":16013:16029   */\n      dup3\n        /* \"#utility.yul\":15989:16030   */\n      tag_149\n      jump\t// in\n    tag_314:\n        /* \"#utility.yul\":15981:15987   */\n      dup5\n        /* \"#utility.yul\":15974:15978   */\n      dup5\n        /* \"#utility.yul\":15968:15979   */\n      sload\n        /* \"#utility.yul\":15940:16031   */\n      tag_146\n      jump\t// in\n    tag_313:\n        /* \"#utility.yul\":15934:15938   */\n      dup3\n        /* \"#utility.yul\":15927:16032   */\n      sstore\n        /* \"#utility.yul\":15845:16038   */\n      pop\n        /* \"#utility.yul\":15769:16038   */\n      pop\n      pop\n      pop\n      jump\t// out\n        /* \"#utility.yul\":16044:16117   */\n    tag_151:\n        /* \"#utility.yul\":16089:16092   */\n      0x00\n        /* \"#utility.yul\":16044:16117   */\n      swap1\n      jump\t// out\n        /* \"#utility.yul\":16123:16312   */\n    tag_152:\n        /* \"#utility.yul\":16200:16232   */\n      tag_317\n      tag_151\n      jump\t// in\n    tag_317:\n        /* \"#utility.yul\":16241:16306   */\n      tag_318\n        /* \"#utility.yul\":16299:16305   */\n      dup2\n        /* \"#utility.yul\":16291:16297   */\n      dup5\n        /* \"#utility.yul\":16285:16289   */\n      dup5\n        /* \"#utility.yul\":16241:16306   */\n      tag_150\n      jump\t// in\n    tag_318:\n        /* \"#utility.yul\":16176:16312   */\n      pop\n        /* \"#utility.yul\":16123:16312   */\n      pop\n      pop\n      jump\t// out\n        /* \"#utility.yul\":16318:16504   */\n    tag_153:\n        /* \"#utility.yul\":16378:16498   */\n    tag_320:\n        /* \"#utility.yul\":16395:16398   */\n      dup2\n        /* \"#utility.yul\":16388:16393   */\n      dup2\n        /* \"#utility.yul\":16385:16399   */\n      lt\n        /* \"#utility.yul\":16378:16498   */\n      iszero\n      tag_322\n      jumpi\n        /* \"#utility.yul\":16449:16488   */\n      tag_323\n        /* \"#utility.yul\":16486:16487   */\n      0x00\n        /* \"#utility.yul\":16479:16484   */\n      dup3\n        /* \"#utility.yul\":16449:16488   */\n      tag_152\n      jump\t// in\n    tag_323:\n        /* \"#utility.yul\":16422:16423   */\n      0x01\n        /* \"#utility.yul\":16415:16420   */\n      dup2\n        /* \"#utility.yul\":16411:16424   */\n      add\n        /* \"#utility.yul\":16402:16424   */\n      swap1\n      pop\n        /* \"#utility.yul\":16378:16498   */\n      jump(tag_320)\n    tag_322:\n        /* \"#utility.yul\":16318:16504   */\n      pop\n      pop\n      jump\t// out\n        /* \"#utility.yul\":16510:17053   */\n    tag_154:\n        /* \"#utility.yul\":16611:16613   */\n      0x1f\n        /* \"#utility.yul\":16606:16609   */\n      dup3\n        /* \"#utility.yul\":16603:16614   */\n      gt\n        /* \"#utility.yul\":16600:17046   */\n      iszero\n      tag_325\n      jumpi\n        /* \"#utility.yul\":16645:16683   */\n      tag_326\n        /* \"#utility.yul\":16677:16682   */\n      dup2\n        /* \"#utility.yul\":16645:16683   */\n      tag_143\n      jump\t// in\n    tag_326:\n        /* \"#utility.yul\":16729:16758   */\n      tag_327\n        /* \"#utility.yul\":16747:16757   */\n      dup5\n        /* \"#utility.yul\":16729:16758   */\n      tag_144\n      jump\t// in\n    tag_327:\n        /* \"#utility.yul\":16719:16727   */\n      dup2\n        /* \"#utility.yul\":16715:16759   */\n      add\n        /* \"#utility.yul\":16912:16914   */\n      0x20\n        /* \"#utility.yul\":16900:16910   */\n      dup6\n        /* \"#utility.yul\":16897:16915   */\n      lt\n        /* \"#utility.yul\":16894:16943   */\n      iszero\n      tag_328\n      jumpi\n        /* \"#utility.yul\":16933:16941   */\n      dup2\n        /* \"#utility.yul\":16918:16941   */\n      swap1\n      pop\n        /* \"#utility.yul\":16894:16943   */\n    tag_328:\n        /* \"#utility.yul\":16956:17036   */\n      tag_329\n        /* \"#utility.yul\":17012:17034   */\n      tag_330\n        /* \"#utility.yul\":17030:17033   */\n      dup6\n        /* \"#utility.yul\":17012:17034   */\n      tag_144\n      jump\t// in\n    tag_330:\n        /* \"#utility.yul\":17002:17010   */\n      dup4\n        /* \"#utility.yul\":16998:17035   */\n      add\n        /* \"#utility.yul\":16985:16996   */\n      dup3\n        /* \"#utility.yul\":16956:17036   */\n      tag_153\n      jump\t// in\n    tag_329:\n        /* \"#utility.yul\":16615:17046   */\n      pop\n      pop\n        /* \"#utility.yul\":16600:17046   */\n    tag_325:\n        /* \"#utility.yul\":16510:17053   */\n      pop\n      pop\n      pop\n      jump\t// out\n        /* \"#utility.yul\":17059:17176   */\n    tag_155:\n        /* \"#utility.yul\":17113:17121   */\n      0x00\n        /* \"#utility.yul\":17163:17168   */\n      dup3\n        /* \"#utility.yul\":17157:17161   */\n      dup3\n        /* \"#utility.yul\":17153:17169   */\n      shr\n        /* \"#utility.yul\":17132:17169   */\n      swap1\n      pop\n        /* \"#utility.yul\":17059:17176   */\n      swap3\n      swap2\n      pop\n      pop\n      jump\t// out\n        /* \"#utility.yul\":17182:17351   */\n    tag_156:\n        /* \"#utility.yul\":17226:17232   */\n      0x00\n        /* \"#utility.yul\":17259:17310   */\n      tag_333\n        /* \"#utility.yul\":17307:17308   */\n      0x00\n        /* \"#utility.yul\":17303:17309   */\n      not\n        /* \"#utility.yul\":17295:17300   */\n      dup5\n        /* \"#utility.yul\":17292:17293   */\n      0x08\n        /* \"#utility.yul\":17288:17301   */\n      mul\n        /* \"#utility.yul\":17259:17310   */\n      tag_155\n      jump\t// in\n    tag_333:\n        /* \"#utility.yul\":17255:17311   */\n      not\n        /* \"#utility.yul\":17340:17344   */\n      dup1\n        /* \"#utility.yul\":17334:17338   */\n      dup4\n        /* \"#utility.yul\":17330:17345   */\n      and\n        /* \"#utility.yul\":17320:17345   */\n      swap2\n      pop\n        /* \"#utility.yul\":17233:17351   */\n      pop\n        /* \"#utility.yul\":17182:17351   */\n      swap3\n      swap2\n      pop\n      pop\n      jump\t// out\n        /* \"#utility.yul\":17356:17651   */\n    tag_157:\n        /* \"#utility.yul\":17432:17436   */\n      0x00\n        /* \"#utility.yul\":17578:17607   */\n      tag_335\n        /* \"#utility.yul\":17603:17606   */\n      dup4\n        /* \"#utility.yul\":17597:17601   */\n      dup4\n        /* \"#utility.yul\":17578:17607   */\n      tag_156\n      jump\t// in\n    tag_335:\n        /* \"#utility.yul\":17570:17607   */\n      swap2\n      pop\n        /* \"#utility.yul\":17640:17643   */\n      dup3\n        /* \"#utility.yul\":17637:17638   */\n      0x02\n        /* \"#utility.yul\":17633:17644   */\n      mul\n        /* \"#utility.yul\":17627:17631   */\n      dup3\n        /* \"#utility.yul\":17624:17645   */\n      or\n        /* \"#utility.yul\":17616:17645   */\n      swap1\n      pop\n        /* \"#utility.yul\":17356:17651   */\n      swap3\n      swap2\n      pop\n      pop\n      jump\t// out\n        /* \"#utility.yul\":17656:19051   */\n    tag_84:\n        /* \"#utility.yul\":17773:17810   */\n      tag_337\n        /* \"#utility.yul\":17806:17809   */\n      dup3\n        /* \"#utility.yul\":17773:17810   */\n      tag_114\n      jump\t// in\n    tag_337:\n        /* \"#utility.yul\":17875:17893   */\n      0xffffffffffffffff\n        /* \"#utility.yul\":17867:17873   */\n      dup2\n        /* \"#utility.yul\":17864:17894   */\n      gt\n        /* \"#utility.yul\":17861:17917   */\n      iszero\n      tag_338\n      jumpi\n        /* \"#utility.yul\":17897:17915   */\n      tag_339\n      tag_122\n      jump\t// in\n    tag_339:\n        /* \"#utility.yul\":17861:17917   */\n    tag_338:\n        /* \"#utility.yul\":17941:17979   */\n      tag_340\n        /* \"#utility.yul\":17973:17977   */\n      dup3\n        /* \"#utility.yul\":17967:17978   */\n      sload\n        /* \"#utility.yul\":17941:17979   */\n      tag_66\n      jump\t// in\n    tag_340:\n        /* \"#utility.yul\":18026:18093   */\n      tag_341\n        /* \"#utility.yul\":18086:18092   */\n      dup3\n        /* \"#utility.yul\":18078:18084   */\n      dup3\n        /* \"#utility.yul\":18072:18076   */\n      dup6\n        /* \"#utility.yul\":18026:18093   */\n      tag_154\n      jump\t// in\n    tag_341:\n        /* \"#utility.yul\":18120:18121   */\n      0x00\n        /* \"#utility.yul\":18144:18148   */\n      0x20\n        /* \"#utility.yul\":18131:18148   */\n      swap1\n      pop\n        /* \"#utility.yul\":18176:18178   */\n      0x1f\n        /* \"#utility.yul\":18168:18174   */\n      dup4\n        /* \"#utility.yul\":18165:18179   */\n      gt\n        /* \"#utility.yul\":18193:18194   */\n      0x01\n        /* \"#utility.yul\":18188:18806   */\n      dup2\n      eq\n      tag_343\n      jumpi\n        /* \"#utility.yul\":18850:18851   */\n      0x00\n        /* \"#utility.yul\":18867:18873   */\n      dup5\n        /* \"#utility.yul\":18864:18941   */\n      iszero\n      tag_344\n      jumpi\n        /* \"#utility.yul\":18916:18925   */\n      dup3\n        /* \"#utility.yul\":18911:18914   */\n      dup8\n        /* \"#utility.yul\":18907:18926   */\n      add\n        /* \"#utility.yul\":18901:18927   */\n      mload\n        /* \"#utility.yul\":18892:18927   */\n      swap1\n      pop\n        /* \"#utility.yul\":18864:18941   */\n    tag_344:\n        /* \"#utility.yul\":18967:19034   */\n      tag_345\n        /* \"#utility.yul\":19027:19033   */\n      dup6\n        /* \"#utility.yul\":19020:19025   */\n      dup3\n        /* \"#utility.yul\":18967:19034   */\n      tag_157\n      jump\t// in\n    tag_345:\n        /* \"#utility.yul\":18961:18965   */\n      dup7\n        /* \"#utility.yul\":18954:19035   */\n      sstore\n        /* \"#utility.yul\":18823:19045   */\n      pop\n        /* \"#utility.yul\":18158:19045   */\n      jump(tag_342)\n        /* \"#utility.yul\":18188:18806   */\n    tag_343:\n        /* \"#utility.yul\":18240:18244   */\n      0x1f\n        /* \"#utility.yul\":18236:18245   */\n      not\n        /* \"#utility.yul\":18228:18234   */\n      dup5\n        /* \"#utility.yul\":18224:18246   */\n      and\n        /* \"#utility.yul\":18274:18311   */\n      tag_346\n        /* \"#utility.yul\":18306:18310   */\n      dup7\n        /* \"#utility.yul\":18274:18311   */\n      tag_143\n      jump\t// in\n    tag_346:\n        /* \"#utility.yul\":18333:18334   */\n      0x00\n        /* \"#utility.yul\":18347:18555   */\n    tag_347:\n        /* \"#utility.yul\":18361:18368   */\n      dup3\n        /* \"#utility.yul\":18358:18359   */\n      dup2\n        /* \"#utility.yul\":18355:18369   */\n      lt\n        /* \"#utility.yul\":18347:18555   */\n      iszero\n      tag_349\n      jumpi\n        /* \"#utility.yul\":18440:18449   */\n      dup5\n        /* \"#utility.yul\":18435:18438   */\n      dup10\n        /* \"#utility.yul\":18431:18450   */\n      add\n        /* \"#utility.yul\":18425:18451   */\n      mload\n        /* \"#utility.yul\":18417:18423   */\n      dup3\n        /* \"#utility.yul\":18410:18452   */\n      sstore\n        /* \"#utility.yul\":18491:18492   */\n      0x01\n        /* \"#utility.yul\":18483:18489   */\n      dup3\n        /* \"#utility.yul\":18479:18493   */\n      add\n        /* \"#utility.yul\":18469:18493   */\n      swap2\n      pop\n        /* \"#utility.yul\":18538:18540   */\n      0x20\n        /* \"#utility.yul\":18527:18536   */\n      dup6\n        /* \"#utility.yul\":18523:18541   */\n      add\n        /* \"#utility.yul\":18510:18541   */\n      swap5\n      pop\n        /* \"#utility.yul\":18384:18388   */\n      0x20\n        /* \"#utility.yul\":18381:18382   */\n      dup2\n        /* \"#utility.yul\":18377:18389   */\n      add\n        /* \"#utility.yul\":18372:18389   */\n      swap1\n      pop\n        /* \"#utility.yul\":18347:18555   */\n      jump(tag_347)\n    tag_349:\n        /* \"#utility.yul\":18583:18589   */\n      dup7\n        /* \"#utility.yul\":18574:18581   */\n      dup4\n        /* \"#utility.yul\":18571:18590   */\n      lt\n        /* \"#utility.yul\":18568:18747   */\n      iszero\n      tag_350\n      jumpi\n        /* \"#utility.yul\":18641:18650   */\n      dup5\n        /* \"#utility.yul\":18636:18639   */\n      dup10\n        /* \"#utility.yul\":18632:18651   */\n      add\n        /* \"#utility.yul\":18626:18652   */\n      mload\n        /* \"#utility.yul\":18684:18732   */\n      tag_351\n        /* \"#utility.yul\":18726:18730   */\n      0x1f\n        /* \"#utility.yul\":18718:18724   */\n      dup10\n        /* \"#utility.yul\":18714:18731   */\n      and\n        /* \"#utility.yul\":18703:18712   */\n      dup3\n        /* \"#utility.yul\":18684:18732   */\n      tag_156\n      jump\t// in\n    tag_351:\n        /* \"#utility.yul\":18676:18682   */\n      dup4\n        /* \"#utility.yul\":18669:18733   */\n      sstore\n        /* \"#utility.yul\":18591:18747   */\n      pop\n        /* \"#utility.yul\":18568:18747   */\n    tag_350:\n        /* \"#utility.yul\":18793:18794   */\n      0x01\n        /* \"#utility.yul\":18789:18790   */\n      0x02\n        /* \"#utility.yul\":18781:18787   */\n      dup9\n        /* \"#utility.yul\":18777:18791   */\n      mul\n        /* \"#utility.yul\":18773:18795   */\n      add\n        /* \"#utility.yul\":18767:18771   */\n      dup9\n        /* \"#utility.yul\":18760:18796   */\n      sstore\n        /* \"#utility.yul\":18195:18806   */\n      pop\n      pop\n      pop\n        /* \"#utility.yul\":18158:19045   */\n    tag_342:\n      pop\n        /* \"#utility.yul\":17748:19051   */\n      pop\n      pop\n      pop\n        /* \"#utility.yul\":17656:19051   */\n      pop\n      pop\n      jump\t// out\n        /* \"#utility.yul\":19057:19590   */\n    tag_87:\n        /* \"#utility.yul\":19226:19230   */\n      0x00\n        /* \"#utility.yul\":19264:19266   */\n      0x60\n        /* \"#utility.yul\":19253:19262   */\n      dup3\n        /* \"#utility.yul\":19249:19267   */\n      add\n        /* \"#utility.yul\":19241:19267   */\n      swap1\n      pop\n        /* \"#utility.yul\":19277:19348   */\n      tag_353\n        /* \"#utility.yul\":19345:19346   */\n      0x00\n        /* \"#utility.yul\":19334:19343   */\n      dup4\n        /* \"#utility.yul\":19330:19347   */\n      add\n        /* \"#utility.yul\":19321:19327   */\n      dup7\n        /* \"#utility.yul\":19277:19348   */\n      tag_113\n      jump\t// in\n    tag_353:\n        /* \"#utility.yul\":19395:19404   */\n      dup2\n        /* \"#utility.yul\":19389:19393   */\n      dup2\n        /* \"#utility.yul\":19385:19405   */\n      sub\n        /* \"#utility.yul\":19380:19382   */\n      0x20\n        /* \"#utility.yul\":19369:19378   */\n      dup4\n        /* \"#utility.yul\":19365:19383   */\n      add\n        /* \"#utility.yul\":19358:19406   */\n      mstore\n        /* \"#utility.yul\":19423:19501   */\n      tag_354\n        /* \"#utility.yul\":19496:19500   */\n      dup2\n        /* \"#utility.yul\":19487:19493   */\n      dup6\n        /* \"#utility.yul\":19423:19501   */\n      tag_118\n      jump\t// in\n    tag_354:\n        /* \"#utility.yul\":19415:19501   */\n      swap1\n      pop\n        /* \"#utility.yul\":19511:19583   */\n      tag_355\n        /* \"#utility.yul\":19579:19581   */\n      0x40\n        /* \"#utility.yul\":19568:19577   */\n      dup4\n        /* \"#utility.yul\":19564:19582   */\n      add\n        /* \"#utility.yul\":19555:19561   */\n      dup5\n        /* \"#utility.yul\":19511:19583   */\n      tag_119\n      jump\t// in\n    tag_355:\n        /* \"#utility.yul\":19057:19590   */\n      swap5\n      swap4\n      pop\n      pop\n      pop\n      pop\n      jump\t// out\n\n    auxdata: 0xa26469706673582212205c0e6c0bfb6034841c9495739cad7a1f6b37fa4f66c1e49d1cd70b0615c08f3264736f6c63430008180033\n}\n",
				"bytecode": {
					"linkReferences": {},
					"object": "608060405234801562000010575f80fd5b50335f73ffffffffffffffffffffffffffffffffffffffff168173ffffffffffffffffffffffffffffffffffffffff160362000085575f6040517f1e4fbdf70000000000000000000000000000000000000000000000000000000081526004016200007c9190620001a1565b60405180910390fd5b62000096816200009d60201b60201c565b50620001bc565b5f805f9054906101000a900473ffffffffffffffffffffffffffffffffffffffff169050815f806101000a81548173ffffffffffffffffffffffffffffffffffffffff021916908373ffffffffffffffffffffffffffffffffffffffff1602179055508173ffffffffffffffffffffffffffffffffffffffff168173ffffffffffffffffffffffffffffffffffffffff167f8be0079c531659141344cd1fd0a4f28419497f9722a3daafe3b4186f6b6457e060405160405180910390a35050565b5f73ffffffffffffffffffffffffffffffffffffffff82169050919050565b5f62000189826200015e565b9050919050565b6200019b816200017d565b82525050565b5f602082019050620001b65f83018462000190565b92915050565b61136d80620001ca5f395ff3fe608060405234801561000f575f80fd5b506004361061007b575f3560e01c80638da5cb5b116100595780638da5cb5b146100d9578063c7595594146100f7578063ed9aab5114610113578063f2fde38b146101315761007b565b80630b5691401461007f578063715018a61461009b5780637acc0b20146100a5575b5f80fd5b610099600480360381019061009491906109c2565b61014d565b005b6100a361041d565b005b6100bf60048036038101906100ba9190610a00565b610430565b6040516100d0959493929190610ad3565b60405180910390f35b6100e161058d565b6040516100ee9190610b32565b60405180910390f35b610111600480360381019061010c9190610c77565b6105b4565b005b61011b61072c565b6040516101289190610b32565b60405180910390f35b61014b60048036038101906101469190610d13565b610751565b005b5f60015f8481526020019081526020015f205f0154036101a2576040517f08c379a000000000000000000000000000000000000000000000000000000000815260040161019990610d88565b60405180910390fd5b3373ffffffffffffffffffffffffffffffffffffffff1660015f8481526020019081526020015f206002015f9054906101000a900473ffffffffffffffffffffffffffffffffffffffff1673ffffffffffffffffffffffffffffffffffffffff1614610243576040517f08c379a000000000000000000000000000000000000000000000000000000000815260040161023a90610e16565b60405180910390fd5b3373ffffffffffffffffffffffffffffffffffffffff168173ffffffffffffffffffffffffffffffffffffffff16036102b1576040517f08c379a00000000000000000000000000000000000000000000000000000000081526004016102a890610ea4565b60405180910390fd5b5f60025f9054906101000a900473ffffffffffffffffffffffffffffffffffffffff1690508073ffffffffffffffffffffffffffffffffffffffff1663ebd13f69846040518263ffffffff1660e01b815260040161030f9190610ec2565b602060405180830381865afa15801561032a573d5f803e3d5ffd5b505050506040513d601f19601f8201168201806040525081019061034e9190610f10565b61038d576040517f08c379a000000000000000000000000000000000000000000000000000000000815260040161038490610f85565b60405180910390fd5b8160015f8581526020019081526020015f206002015f6101000a81548173ffffffffffffffffffffffffffffffffffffffff021916908373ffffffffffffffffffffffffffffffffffffffff1602179055507fbdb79f0b777669cf4d01754a6d6b461bdd8d0f18b57c036e7d4bf3a567f337848383604051610410929190610fa3565b60405180910390a1505050565b6104256107d5565b61042e5f61085c565b565b6001602052805f5260405f205f91509050805f01549080600101805461045590610ff7565b80601f016020809104026020016040519081016040528092919081815260200182805461048190610ff7565b80156104cc5780601f106104a3576101008083540402835291602001916104cc565b820191905f5260205f20905b8154815290600101906020018083116104af57829003601f168201915b505050505090806002015f9054906101000a900473ffffffffffffffffffffffffffffffffffffffff169080600301549080600401805461050c90610ff7565b80601f016020809104026020016040519081016040528092919081815260200182805461053890610ff7565b80156105835780601f1061055a57610100808354040283529160200191610583565b820191905f5260205f20905b81548152906001019060200180831161056657829003601f168201915b5050505050905085565b5f805f9054906101000a900473ffffffffffffffffffffffffffffffffffffffff16905090565b6105bc6107d5565b5f60015f8681526020019081526020015f205f015414610611576040517f08c379a000000000000000000000000000000000000000000000000000000000815260040161060890611071565b60405180910390fd5b5f6040518060a001604052808681526020018581526020013373ffffffffffffffffffffffffffffffffffffffff1681526020018481526020018381525090508060015f8781526020019081526020015f205f820151815f01556020820151816001019081610680919061122c565b506040820151816002015f6101000a81548173ffffffffffffffffffffffffffffffffffffffff021916908373ffffffffffffffffffffffffffffffffffffffff1602179055506060820151816003015560808201518160040190816106e6919061122c565b509050507faf6ffb6277511513e7d579327cc1fc57f0266df2fb11a60b13487b8c9cd2c38885853360405161071d939291906112fb565b60405180910390a15050505050565b60025f9054906101000a900473ffffffffffffffffffffffffffffffffffffffff1681565b6107596107d5565b5f73ffffffffffffffffffffffffffffffffffffffff168173ffffffffffffffffffffffffffffffffffffffff16036107c9575f6040517f1e4fbdf70000000000000000000000000000000000000000000000000000000081526004016107c09190610b32565b60405180910390fd5b6107d28161085c565b50565b6107dd61091d565b73ffffffffffffffffffffffffffffffffffffffff166107fb61058d565b73ffffffffffffffffffffffffffffffffffffffff161461085a5761081e61091d565b6040517f118cdaa70000000000000000000000000000000000000000000000000000000081526004016108519190610b32565b60405180910390fd5b565b5f805f9054906101000a900473ffffffffffffffffffffffffffffffffffffffff169050815f806101000a81548173ffffffffffffffffffffffffffffffffffffffff021916908373ffffffffffffffffffffffffffffffffffffffff1602179055508173ffffffffffffffffffffffffffffffffffffffff168173ffffffffffffffffffffffffffffffffffffffff167f8be0079c531659141344cd1fd0a4f28419497f9722a3daafe3b4186f6b6457e060405160405180910390a35050565b5f33905090565b5f604051905090565b5f80fd5b5f80fd5b5f819050919050565b61094781610935565b8114610951575f80fd5b50565b5f813590506109628161093e565b92915050565b5f73ffffffffffffffffffffffffffffffffffffffff82169050919050565b5f61099182610968565b9050919050565b6109a181610987565b81146109ab575f80fd5b50565b5f813590506109bc81610998565b92915050565b5f80604083850312156109d8576109d761092d565b5b5f6109e585828601610954565b92505060206109f6858286016109ae565b9150509250929050565b5f60208284031215610a1557610a1461092d565b5b5f610a2284828501610954565b91505092915050565b610a3481610935565b82525050565b5f81519050919050565b5f82825260208201905092915050565b5f5b83811015610a71578082015181840152602081019050610a56565b5f8484015250505050565b5f601f19601f8301169050919050565b5f610a9682610a3a565b610aa08185610a44565b9350610ab0818560208601610a54565b610ab981610a7c565b840191505092915050565b610acd81610987565b82525050565b5f60a082019050610ae65f830188610a2b565b8181036020830152610af88187610a8c565b9050610b076040830186610ac4565b610b146060830185610a2b565b8181036080830152610b268184610a8c565b90509695505050505050565b5f602082019050610b455f830184610ac4565b92915050565b5f80fd5b5f80fd5b7f4e487b71000000000000000000000000000000000000000000000000000000005f52604160045260245ffd5b610b8982610a7c565b810181811067ffffffffffffffff82111715610ba857610ba7610b53565b5b80604052505050565b5f610bba610924565b9050610bc68282610b80565b919050565b5f67ffffffffffffffff821115610be557610be4610b53565b5b610bee82610a7c565b9050602081019050919050565b828183375f83830152505050565b5f610c1b610c1684610bcb565b610bb1565b905082815260208101848484011115610c3757610c36610b4f565b5b610c42848285610bfb565b509392505050565b5f82601f830112610c5e57610c5d610b4b565b5b8135610c6e848260208601610c09565b91505092915050565b5f805f8060808587031215610c8f57610c8e61092d565b5b5f610c9c87828801610954565b945050602085013567ffffffffffffffff811115610cbd57610cbc610931565b5b610cc987828801610c4a565b9350506040610cda87828801610954565b925050606085013567ffffffffffffffff811115610cfb57610cfa610931565b5b610d0787828801610c4a565b91505092959194509250565b5f60208284031215610d2857610d2761092d565b5b5f610d35848285016109ae565b91505092915050565b7f50726f6475637420646f6573206e6f74206578697374000000000000000000005f82015250565b5f610d72601683610a44565b9150610d7d82610d3e565b602082019050919050565b5f6020820190508181035f830152610d9f81610d66565b9050919050565b7f4f6e6c79207468652070726f64756374206f776e65722063616e2073656c6c205f8201527f7468652070726f64756374000000000000000000000000000000000000000000602082015250565b5f610e00602b83610a44565b9150610e0b82610da6565b604082019050919050565b5f6020820190508181035f830152610e2d81610df4565b9050919050565b7f42757965722073686f756c64206e6f74206265207468652063757272656e74205f8201527f6f776e6572000000000000000000000000000000000000000000000000000000602082015250565b5f610e8e602583610a44565b9150610e9982610e34565b604082019050919050565b5f6020820190508181035f830152610ebb81610e82565b9050919050565b5f602082019050610ed55f830184610a2b565b92915050565b5f8115159050919050565b610eef81610edb565b8114610ef9575f80fd5b50565b5f81519050610f0a81610ee6565b92915050565b5f60208284031215610f2557610f2461092d565b5b5f610f3284828501610efc565b91505092915050565b7f50726f64756374206973206e6f742076657269666965640000000000000000005f82015250565b5f610f6f601783610a44565b9150610f7a82610f3b565b602082019050919050565b5f6020820190508181035f830152610f9c81610f63565b9050919050565b5f604082019050610fb65f830185610a2b565b610fc36020830184610ac4565b9392505050565b7f4e487b71000000000000000000000000000000000000000000000000000000005f52602260045260245ffd5b5f600282049050600182168061100e57607f821691505b60208210810361102157611020610fca565b5b50919050565b7f50726f6475637420616c726561647920657869737473000000000000000000005f82015250565b5f61105b601683610a44565b915061106682611027565b602082019050919050565b5f6020820190508181035f8301526110888161104f565b9050919050565b5f819050815f5260205f209050919050565b5f6020601f8301049050919050565b5f82821b905092915050565b5f600883026110eb7fffffffffffffffffffffffffffffffffffffffffffffffffffffffffffffffff826110b0565b6110f586836110b0565b95508019841693508086168417925050509392505050565b5f819050919050565b5f61113061112b61112684610935565b61110d565b610935565b9050919050565b5f819050919050565b61114983611116565b61115d61115582611137565b8484546110bc565b825550505050565b5f90565b611171611165565b61117c818484611140565b505050565b5b8181101561119f576111945f82611169565b600181019050611182565b5050565b601f8211156111e4576111b58161108f565b6111be846110a1565b810160208510156111cd578190505b6111e16111d9856110a1565b830182611181565b50505b505050565b5f82821c905092915050565b5f6112045f19846008026111e9565b1980831691505092915050565b5f61121c83836111f5565b9150826002028217905092915050565b61123582610a3a565b67ffffffffffffffff81111561124e5761124d610b53565b5b6112588254610ff7565b6112638282856111a3565b5f60209050601f831160018114611294575f8415611282578287015190505b61128c8582611211565b8655506112f3565b601f1984166112a28661108f565b5f5b828110156112c9578489015182556001820191506020850194506020810190506112a4565b868310156112e657848901516112e2601f8916826111f5565b8355505b6001600288020188555050505b505050505050565b5f60608201905061130e5f830186610a2b565b81810360208301526113208185610a8c565b905061132f6040830184610ac4565b94935050505056fea26469706673582212205c0e6c0bfb6034841c9495739cad7a1f6b37fa4f66c1e49d1cd70b0615c08f3264736f6c63430008180033",
					"opcodes": "PUSH1 0x80 PUSH1 0x40 MSTORE CALLVALUE DUP1 ISZERO PUSH3 0x10 JUMPI PUSH0 DUP1 REVERT JUMPDEST POP CALLER PUSH0 PUSH20 0xFFFFFFFFFFFFFFFFFFFFFFFFFFFFFFFFFFFFFFFF AND DUP2 PUSH20 0xFFFFFFFFFFFFFFFFFFFFFFFFFFFFFFFFFFFFFFFF AND SUB PUSH3 0x85 JUMPI PUSH0 PUSH1 0x40 MLOAD PUSH32 0x1E4FBDF700000000000000000000000000000000000000000000000000000000 DUP2 MSTORE PUSH1 0x4 ADD PUSH3 0x7C SWAP2 SWAP1 PUSH3 0x1A1 JUMP JUMPDEST PUSH1 0x40 MLOAD DUP1 SWAP2 SUB SWAP1 REVERT JUMPDEST PUSH3 0x96 DUP2 PUSH3 0x9D PUSH1 0x20 SHL PUSH1 0x20 SHR JUMP JUMPDEST POP PUSH3 0x1BC JUMP JUMPDEST PUSH0 DUP1 PUSH0 SWAP1 SLOAD SWAP1 PUSH2 0x100 EXP SWAP1 DIV PUSH20 0xFFFFFFFFFFFFFFFFFFFFFFFFFFFFFFFFFFFFFFFF AND SWAP1 POP DUP2 PUSH0 DUP1 PUSH2 0x100 EXP DUP2 SLOAD DUP2 PUSH20 0xFFFFFFFFFFFFFFFFFFFFFFFFFFFFFFFFFFFFFFFF MUL NOT AND SWAP1 DUP4 PUSH20 0xFFFFFFFFFFFFFFFFFFFFFFFFFFFFFFFFFFFFFFFF AND MUL OR SWAP1 SSTORE POP DUP2 PUSH20 0xFFFFFFFFFFFFFFFFFFFFFFFFFFFFFFFFFFFFFFFF AND DUP2 PUSH20 0xFFFFFFFFFFFFFFFFFFFFFFFFFFFFFFFFFFFFFFFF AND PUSH32 0x8BE0079C531659141344CD1FD0A4F28419497F9722A3DAAFE3B4186F6B6457E0 PUSH1 0x40 MLOAD PUSH1 0x40 MLOAD DUP1 SWAP2 SUB SWAP1 LOG3 POP POP JUMP JUMPDEST PUSH0 PUSH20 0xFFFFFFFFFFFFFFFFFFFFFFFFFFFFFFFFFFFFFFFF DUP3 AND SWAP1 POP SWAP2 SWAP1 POP JUMP JUMPDEST PUSH0 PUSH3 0x189 DUP3 PUSH3 0x15E JUMP JUMPDEST SWAP1 POP SWAP2 SWAP1 POP JUMP JUMPDEST PUSH3 0x19B DUP2 PUSH3 0x17D JUMP JUMPDEST DUP3 MSTORE POP POP JUMP JUMPDEST PUSH0 PUSH1 0x20 DUP3 ADD SWAP1 POP PUSH3 0x1B6 PUSH0 DUP4 ADD DUP5 PUSH3 0x190 JUMP JUMPDEST SWAP3 SWAP2 POP POP JUMP JUMPDEST PUSH2 0x136D DUP1 PUSH3 0x1CA PUSH0 CODECOPY PUSH0 RETURN INVALID PUSH1 0x80 PUSH1 0x40 MSTORE CALLVALUE DUP1 ISZERO PUSH2 0xF JUMPI PUSH0 DUP1 REVERT JUMPDEST POP PUSH1 0x4 CALLDATASIZE LT PUSH2 0x7B JUMPI PUSH0 CALLDATALOAD PUSH1 0xE0 SHR DUP1 PUSH4 0x8DA5CB5B GT PUSH2 0x59 JUMPI DUP1 PUSH4 0x8DA5CB5B EQ PUSH2 0xD9 JUMPI DUP1 PUSH4 0xC7595594 EQ PUSH2 0xF7 JUMPI DUP1 PUSH4 0xED9AAB51 EQ PUSH2 0x113 JUMPI DUP1 PUSH4 0xF2FDE38B EQ PUSH2 0x131 JUMPI PUSH2 0x7B JUMP JUMPDEST DUP1 PUSH4 0xB569140 EQ PUSH2 0x7F JUMPI DUP1 PUSH4 0x715018A6 EQ PUSH2 0x9B JUMPI DUP1 PUSH4 0x7ACC0B20 EQ PUSH2 0xA5 JUMPI JUMPDEST PUSH0 DUP1 REVERT JUMPDEST PUSH2 0x99 PUSH1 0x4 DUP1 CALLDATASIZE SUB DUP2 ADD SWAP1 PUSH2 0x94 SWAP2 SWAP1 PUSH2 0x9C2 JUMP JUMPDEST PUSH2 0x14D JUMP JUMPDEST STOP JUMPDEST PUSH2 0xA3 PUSH2 0x41D JUMP JUMPDEST STOP JUMPDEST PUSH2 0xBF PUSH1 0x4 DUP1 CALLDATASIZE SUB DUP2 ADD SWAP1 PUSH2 0xBA SWAP2 SWAP1 PUSH2 0xA00 JUMP JUMPDEST PUSH2 0x430 JUMP JUMPDEST PUSH1 0x40 MLOAD PUSH2 0xD0 SWAP6 SWAP5 SWAP4 SWAP3 SWAP2 SWAP1 PUSH2 0xAD3 JUMP JUMPDEST PUSH1 0x40 MLOAD DUP1 SWAP2 SUB SWAP1 RETURN JUMPDEST PUSH2 0xE1 PUSH2 0x58D JUMP JUMPDEST PUSH1 0x40 MLOAD PUSH2 0xEE SWAP2 SWAP1 PUSH2 0xB32 JUMP JUMPDEST PUSH1 0x40 MLOAD DUP1 SWAP2 SUB SWAP1 RETURN JUMPDEST PUSH2 0x111 PUSH1 0x4 DUP1 CALLDATASIZE SUB DUP2 ADD SWAP1 PUSH2 0x10C SWAP2 SWAP1 PUSH2 0xC77 JUMP JUMPDEST PUSH2 0x5B4 JUMP JUMPDEST STOP JUMPDEST PUSH2 0x11B PUSH2 0x72C JUMP JUMPDEST PUSH1 0x40 MLOAD PUSH2 0x128 SWAP2 SWAP1 PUSH2 0xB32 JUMP JUMPDEST PUSH1 0x40 MLOAD DUP1 SWAP2 SUB SWAP1 RETURN JUMPDEST PUSH2 0x14B PUSH1 0x4 DUP1 CALLDATASIZE SUB DUP2 ADD SWAP1 PUSH2 0x146 SWAP2 SWAP1 PUSH2 0xD13 JUMP JUMPDEST PUSH2 0x751 JUMP JUMPDEST STOP JUMPDEST PUSH0 PUSH1 0x1 PUSH0 DUP5 DUP2 MSTORE PUSH1 0x20 ADD SWAP1 DUP2 MSTORE PUSH1 0x20 ADD PUSH0 KECCAK256 PUSH0 ADD SLOAD SUB PUSH2 0x1A2 JUMPI PUSH1 0x40 MLOAD PUSH32 0x8C379A000000000000000000000000000000000000000000000000000000000 DUP2 MSTORE PUSH1 0x4 ADD PUSH2 0x199 SWAP1 PUSH2 0xD88 JUMP JUMPDEST PUSH1 0x40 MLOAD DUP1 SWAP2 SUB SWAP1 REVERT JUMPDEST CALLER PUSH20 0xFFFFFFFFFFFFFFFFFFFFFFFFFFFFFFFFFFFFFFFF AND PUSH1 0x1 PUSH0 DUP5 DUP2 MSTORE PUSH1 0x20 ADD SWAP1 DUP2 MSTORE PUSH1 0x20 ADD PUSH0 KECCAK256 PUSH1 0x2 ADD PUSH0 SWAP1 SLOAD SWAP1 PUSH2 0x100 EXP SWAP1 DIV PUSH20 0xFFFFFFFFFFFFFFFFFFFFFFFFFFFFFFFFFFFFFFFF AND PUSH20 0xFFFFFFFFFFFFFFFFFFFFFFFFFFFFFFFFFFFFFFFF AND EQ PUSH2 0x243 JUMPI PUSH1 0x40 MLOAD PUSH32 0x8C379A000000000000000000000000000000000000000000000000000000000 DUP2 MSTORE PUSH1 0x4 ADD PUSH2 0x23A SWAP1 PUSH2 0xE16 JUMP JUMPDEST PUSH1 0x40 MLOAD DUP1 SWAP2 SUB SWAP1 REVERT JUMPDEST CALLER PUSH20 0xFFFFFFFFFFFFFFFFFFFFFFFFFFFFFFFFFFFFFFFF AND DUP2 PUSH20 0xFFFFFFFFFFFFFFFFFFFFFFFFFFFFFFFFFFFFFFFF AND SUB PUSH2 0x2B1 JUMPI PUSH1 0x40 MLOAD PUSH32 0x8C379A000000000000000000000000000000000000000000000000000000000 DUP2 MSTORE PUSH1 0x4 ADD PUSH2 0x2A8 SWAP1 PUSH2 0xEA4 JUMP JUMPDEST PUSH1 0x40 MLOAD DUP1 SWAP2 SUB SWAP1 REVERT JUMPDEST PUSH0 PUSH1 0x2 PUSH0 SWAP1 SLOAD SWAP1 PUSH2 0x100 EXP SWAP1 DIV PUSH20 0xFFFFFFFFFFFFFFFFFFFFFFFFFFFFFFFFFFFFFFFF AND SWAP1 POP DUP1 PUSH20 0xFFFFFFFFFFFFFFFFFFFFFFFFFFFFFFFFFFFFFFFF AND PUSH4 0xEBD13F69 DUP5 PUSH1 0x40 MLOAD DUP3 PUSH4 0xFFFFFFFF AND PUSH1 0xE0 SHL DUP2 MSTORE PUSH1 0x4 ADD PUSH2 0x30F SWAP2 SWAP1 PUSH2 0xEC2 JUMP JUMPDEST PUSH1 0x20 PUSH1 0x40 MLOAD DUP1 DUP4 SUB DUP2 DUP7 GAS STATICCALL ISZERO DUP1 ISZERO PUSH2 0x32A JUMPI RETURNDATASIZE PUSH0 DUP1 RETURNDATACOPY RETURNDATASIZE PUSH0 REVERT JUMPDEST POP POP POP POP PUSH1 0x40 MLOAD RETURNDATASIZE PUSH1 0x1F NOT PUSH1 0x1F DUP3 ADD AND DUP3 ADD DUP1 PUSH1 0x40 MSTORE POP DUP2 ADD SWAP1 PUSH2 0x34E SWAP2 SWAP1 PUSH2 0xF10 JUMP JUMPDEST PUSH2 0x38D JUMPI PUSH1 0x40 MLOAD PUSH32 0x8C379A000000000000000000000000000000000000000000000000000000000 DUP2 MSTORE PUSH1 0x4 ADD PUSH2 0x384 SWAP1 PUSH2 0xF85 JUMP JUMPDEST PUSH1 0x40 MLOAD DUP1 SWAP2 SUB SWAP1 REVERT JUMPDEST DUP2 PUSH1 0x1 PUSH0 DUP6 DUP2 MSTORE PUSH1 0x20 ADD SWAP1 DUP2 MSTORE PUSH1 0x20 ADD PUSH0 KECCAK256 PUSH1 0x2 ADD PUSH0 PUSH2 0x100 EXP DUP2 SLOAD DUP2 PUSH20 0xFFFFFFFFFFFFFFFFFFFFFFFFFFFFFFFFFFFFFFFF MUL NOT AND SWAP1 DUP4 PUSH20 0xFFFFFFFFFFFFFFFFFFFFFFFFFFFFFFFFFFFFFFFF AND MUL OR SWAP1 SSTORE POP PUSH32 0xBDB79F0B777669CF4D01754A6D6B461BDD8D0F18B57C036E7D4BF3A567F33784 DUP4 DUP4 PUSH1 0x40 MLOAD PUSH2 0x410 SWAP3 SWAP2 SWAP1 PUSH2 0xFA3 JUMP JUMPDEST PUSH1 0x40 MLOAD DUP1 SWAP2 SUB SWAP1 LOG1 POP POP POP JUMP JUMPDEST PUSH2 0x425 PUSH2 0x7D5 JUMP JUMPDEST PUSH2 0x42E PUSH0 PUSH2 0x85C JUMP JUMPDEST JUMP JUMPDEST PUSH1 0x1 PUSH1 0x20 MSTORE DUP1 PUSH0 MSTORE PUSH1 0x40 PUSH0 KECCAK256 PUSH0 SWAP2 POP SWAP1 POP DUP1 PUSH0 ADD SLOAD SWAP1 DUP1 PUSH1 0x1 ADD DUP1 SLOAD PUSH2 0x455 SWAP1 PUSH2 0xFF7 JUMP JUMPDEST DUP1 PUSH1 0x1F ADD PUSH1 0x20 DUP1 SWAP2 DIV MUL PUSH1 0x20 ADD PUSH1 0x40 MLOAD SWAP1 DUP2 ADD PUSH1 0x40 MSTORE DUP1 SWAP3 SWAP2 SWAP1 DUP2 DUP2 MSTORE PUSH1 0x20 ADD DUP3 DUP1 SLOAD PUSH2 0x481 SWAP1 PUSH2 0xFF7 JUMP JUMPDEST DUP1 ISZERO PUSH2 0x4CC JUMPI DUP1 PUSH1 0x1F LT PUSH2 0x4A3 JUMPI PUSH2 0x100 DUP1 DUP4 SLOAD DIV MUL DUP4 MSTORE SWAP2 PUSH1 0x20 ADD SWAP2 PUSH2 0x4CC JUMP JUMPDEST DUP3 ADD SWAP2 SWAP1 PUSH0 MSTORE PUSH1 0x20 PUSH0 KECCAK256 SWAP1 JUMPDEST DUP2 SLOAD DUP2 MSTORE SWAP1 PUSH1 0x1 ADD SWAP1 PUSH1 0x20 ADD DUP1 DUP4 GT PUSH2 0x4AF JUMPI DUP3 SWAP1 SUB PUSH1 0x1F AND DUP3 ADD SWAP2 JUMPDEST POP POP POP POP POP SWAP1 DUP1 PUSH1 0x2 ADD PUSH0 SWAP1 SLOAD SWAP1 PUSH2 0x100 EXP SWAP1 DIV PUSH20 0xFFFFFFFFFFFFFFFFFFFFFFFFFFFFFFFFFFFFFFFF AND SWAP1 DUP1 PUSH1 0x3 ADD SLOAD SWAP1 DUP1 PUSH1 0x4 ADD DUP1 SLOAD PUSH2 0x50C SWAP1 PUSH2 0xFF7 JUMP JUMPDEST DUP1 PUSH1 0x1F ADD PUSH1 0x20 DUP1 SWAP2 DIV MUL PUSH1 0x20 ADD PUSH1 0x40 MLOAD SWAP1 DUP2 ADD PUSH1 0x40 MSTORE DUP1 SWAP3 SWAP2 SWAP1 DUP2 DUP2 MSTORE PUSH1 0x20 ADD DUP3 DUP1 SLOAD PUSH2 0x538 SWAP1 PUSH2 0xFF7 JUMP JUMPDEST DUP1 ISZERO PUSH2 0x583 JUMPI DUP1 PUSH1 0x1F LT PUSH2 0x55A JUMPI PUSH2 0x100 DUP1 DUP4 SLOAD DIV MUL DUP4 MSTORE SWAP2 PUSH1 0x20 ADD SWAP2 PUSH2 0x583 JUMP JUMPDEST DUP3 ADD SWAP2 SWAP1 PUSH0 MSTORE PUSH1 0x20 PUSH0 KECCAK256 SWAP1 JUMPDEST DUP2 SLOAD DUP2 MSTORE SWAP1 PUSH1 0x1 ADD SWAP1 PUSH1 0x20 ADD DUP1 DUP4 GT PUSH2 0x566 JUMPI DUP3 SWAP1 SUB PUSH1 0x1F AND DUP3 ADD SWAP2 JUMPDEST POP POP POP POP POP SWAP1 POP DUP6 JUMP JUMPDEST PUSH0 DUP1 PUSH0 SWAP1 SLOAD SWAP1 PUSH2 0x100 EXP SWAP1 DIV PUSH20 0xFFFFFFFFFFFFFFFFFFFFFFFFFFFFFFFFFFFFFFFF AND SWAP1 POP SWAP1 JUMP JUMPDEST PUSH2 0x5BC PUSH2 0x7D5 JUMP JUMPDEST PUSH0 PUSH1 0x1 PUSH0 DUP7 DUP2 MSTORE PUSH1 0x20 ADD SWAP1 DUP2 MSTORE PUSH1 0x20 ADD PUSH0 KECCAK256 PUSH0 ADD SLOAD EQ PUSH2 0x611 JUMPI PUSH1 0x40 MLOAD PUSH32 0x8C379A000000000000000000000000000000000000000000000000000000000 DUP2 MSTORE PUSH1 0x4 ADD PUSH2 0x608 SWAP1 PUSH2 0x1071 JUMP JUMPDEST PUSH1 0x40 MLOAD DUP1 SWAP2 SUB SWAP1 REVERT JUMPDEST PUSH0 PUSH1 0x40 MLOAD DUP1 PUSH1 0xA0 ADD PUSH1 0x40 MSTORE DUP1 DUP7 DUP2 MSTORE PUSH1 0x20 ADD DUP6 DUP2 MSTORE PUSH1 0x20 ADD CALLER PUSH20 0xFFFFFFFFFFFFFFFFFFFFFFFFFFFFFFFFFFFFFFFF AND DUP2 MSTORE PUSH1 0x20 ADD DUP5 DUP2 MSTORE PUSH1 0x20 ADD DUP4 DUP2 MSTORE POP SWAP1 POP DUP1 PUSH1 0x1 PUSH0 DUP8 DUP2 MSTORE PUSH1 0x20 ADD SWAP1 DUP2 MSTORE PUSH1 0x20 ADD PUSH0 KECCAK256 PUSH0 DUP3 ADD MLOAD DUP2 PUSH0 ADD SSTORE PUSH1 0x20 DUP3 ADD MLOAD DUP2 PUSH1 0x1 ADD SWAP1 DUP2 PUSH2 0x680 SWAP2 SWAP1 PUSH2 0x122C JUMP JUMPDEST POP PUSH1 0x40 DUP3 ADD MLOAD DUP2 PUSH1 0x2 ADD PUSH0 PUSH2 0x100 EXP DUP2 SLOAD DUP2 PUSH20 0xFFFFFFFFFFFFFFFFFFFFFFFFFFFFFFFFFFFFFFFF MUL NOT AND SWAP1 DUP4 PUSH20 0xFFFFFFFFFFFFFFFFFFFFFFFFFFFFFFFFFFFFFFFF AND MUL OR SWAP1 SSTORE POP PUSH1 0x60 DUP3 ADD MLOAD DUP2 PUSH1 0x3 ADD SSTORE PUSH1 0x80 DUP3 ADD MLOAD DUP2 PUSH1 0x4 ADD SWAP1 DUP2 PUSH2 0x6E6 SWAP2 SWAP1 PUSH2 0x122C JUMP JUMPDEST POP SWAP1 POP POP PUSH32 0xAF6FFB6277511513E7D579327CC1FC57F0266DF2FB11A60B13487B8C9CD2C388 DUP6 DUP6 CALLER PUSH1 0x40 MLOAD PUSH2 0x71D SWAP4 SWAP3 SWAP2 SWAP1 PUSH2 0x12FB JUMP JUMPDEST PUSH1 0x40 MLOAD DUP1 SWAP2 SUB SWAP1 LOG1 POP POP POP POP POP JUMP JUMPDEST PUSH1 0x2 PUSH0 SWAP1 SLOAD SWAP1 PUSH2 0x100 EXP SWAP1 DIV PUSH20 0xFFFFFFFFFFFFFFFFFFFFFFFFFFFFFFFFFFFFFFFF AND DUP2 JUMP JUMPDEST PUSH2 0x759 PUSH2 0x7D5 JUMP JUMPDEST PUSH0 PUSH20 0xFFFFFFFFFFFFFFFFFFFFFFFFFFFFFFFFFFFFFFFF AND DUP2 PUSH20 0xFFFFFFFFFFFFFFFFFFFFFFFFFFFFFFFFFFFFFFFF AND SUB PUSH2 0x7C9 JUMPI PUSH0 PUSH1 0x40 MLOAD PUSH32 0x1E4FBDF700000000000000000000000000000000000000000000000000000000 DUP2 MSTORE PUSH1 0x4 ADD PUSH2 0x7C0 SWAP2 SWAP1 PUSH2 0xB32 JUMP JUMPDEST PUSH1 0x40 MLOAD DUP1 SWAP2 SUB SWAP1 REVERT JUMPDEST PUSH2 0x7D2 DUP2 PUSH2 0x85C JUMP JUMPDEST POP JUMP JUMPDEST PUSH2 0x7DD PUSH2 0x91D JUMP JUMPDEST PUSH20 0xFFFFFFFFFFFFFFFFFFFFFFFFFFFFFFFFFFFFFFFF AND PUSH2 0x7FB PUSH2 0x58D JUMP JUMPDEST PUSH20 0xFFFFFFFFFFFFFFFFFFFFFFFFFFFFFFFFFFFFFFFF AND EQ PUSH2 0x85A JUMPI PUSH2 0x81E PUSH2 0x91D JUMP JUMPDEST PUSH1 0x40 MLOAD PUSH32 0x118CDAA700000000000000000000000000000000000000000000000000000000 DUP2 MSTORE PUSH1 0x4 ADD PUSH2 0x851 SWAP2 SWAP1 PUSH2 0xB32 JUMP JUMPDEST PUSH1 0x40 MLOAD DUP1 SWAP2 SUB SWAP1 REVERT JUMPDEST JUMP JUMPDEST PUSH0 DUP1 PUSH0 SWAP1 SLOAD SWAP1 PUSH2 0x100 EXP SWAP1 DIV PUSH20 0xFFFFFFFFFFFFFFFFFFFFFFFFFFFFFFFFFFFFFFFF AND SWAP1 POP DUP2 PUSH0 DUP1 PUSH2 0x100 EXP DUP2 SLOAD DUP2 PUSH20 0xFFFFFFFFFFFFFFFFFFFFFFFFFFFFFFFFFFFFFFFF MUL NOT AND SWAP1 DUP4 PUSH20 0xFFFFFFFFFFFFFFFFFFFFFFFFFFFFFFFFFFFFFFFF AND MUL OR SWAP1 SSTORE POP DUP2 PUSH20 0xFFFFFFFFFFFFFFFFFFFFFFFFFFFFFFFFFFFFFFFF AND DUP2 PUSH20 0xFFFFFFFFFFFFFFFFFFFFFFFFFFFFFFFFFFFFFFFF AND PUSH32 0x8BE0079C531659141344CD1FD0A4F28419497F9722A3DAAFE3B4186F6B6457E0 PUSH1 0x40 MLOAD PUSH1 0x40 MLOAD DUP1 SWAP2 SUB SWAP1 LOG3 POP POP JUMP JUMPDEST PUSH0 CALLER SWAP1 POP SWAP1 JUMP JUMPDEST PUSH0 PUSH1 0x40 MLOAD SWAP1 POP SWAP1 JUMP JUMPDEST PUSH0 DUP1 REVERT JUMPDEST PUSH0 DUP1 REVERT JUMPDEST PUSH0 DUP2 SWAP1 POP SWAP2 SWAP1 POP JUMP JUMPDEST PUSH2 0x947 DUP2 PUSH2 0x935 JUMP JUMPDEST DUP2 EQ PUSH2 0x951 JUMPI PUSH0 DUP1 REVERT JUMPDEST POP JUMP JUMPDEST PUSH0 DUP2 CALLDATALOAD SWAP1 POP PUSH2 0x962 DUP2 PUSH2 0x93E JUMP JUMPDEST SWAP3 SWAP2 POP POP JUMP JUMPDEST PUSH0 PUSH20 0xFFFFFFFFFFFFFFFFFFFFFFFFFFFFFFFFFFFFFFFF DUP3 AND SWAP1 POP SWAP2 SWAP1 POP JUMP JUMPDEST PUSH0 PUSH2 0x991 DUP3 PUSH2 0x968 JUMP JUMPDEST SWAP1 POP SWAP2 SWAP1 POP JUMP JUMPDEST PUSH2 0x9A1 DUP2 PUSH2 0x987 JUMP JUMPDEST DUP2 EQ PUSH2 0x9AB JUMPI PUSH0 DUP1 REVERT JUMPDEST POP JUMP JUMPDEST PUSH0 DUP2 CALLDATALOAD SWAP1 POP PUSH2 0x9BC DUP2 PUSH2 0x998 JUMP JUMPDEST SWAP3 SWAP2 POP POP JUMP JUMPDEST PUSH0 DUP1 PUSH1 0x40 DUP4 DUP6 SUB SLT ISZERO PUSH2 0x9D8 JUMPI PUSH2 0x9D7 PUSH2 0x92D JUMP JUMPDEST JUMPDEST PUSH0 PUSH2 0x9E5 DUP6 DUP3 DUP7 ADD PUSH2 0x954 JUMP JUMPDEST SWAP3 POP POP PUSH1 0x20 PUSH2 0x9F6 DUP6 DUP3 DUP7 ADD PUSH2 0x9AE JUMP JUMPDEST SWAP2 POP POP SWAP3 POP SWAP3 SWAP1 POP JUMP JUMPDEST PUSH0 PUSH1 0x20 DUP3 DUP5 SUB SLT ISZERO PUSH2 0xA15 JUMPI PUSH2 0xA14 PUSH2 0x92D JUMP JUMPDEST JUMPDEST PUSH0 PUSH2 0xA22 DUP5 DUP3 DUP6 ADD PUSH2 0x954 JUMP JUMPDEST SWAP2 POP POP SWAP3 SWAP2 POP POP JUMP JUMPDEST PUSH2 0xA34 DUP2 PUSH2 0x935 JUMP JUMPDEST DUP3 MSTORE POP POP JUMP JUMPDEST PUSH0 DUP2 MLOAD SWAP1 POP SWAP2 SWAP1 POP JUMP JUMPDEST PUSH0 DUP3 DUP3 MSTORE PUSH1 0x20 DUP3 ADD SWAP1 POP SWAP3 SWAP2 POP POP JUMP JUMPDEST PUSH0 JUMPDEST DUP4 DUP2 LT ISZERO PUSH2 0xA71 JUMPI DUP1 DUP3 ADD MLOAD DUP2 DUP5 ADD MSTORE PUSH1 0x20 DUP2 ADD SWAP1 POP PUSH2 0xA56 JUMP JUMPDEST PUSH0 DUP5 DUP5 ADD MSTORE POP POP POP POP JUMP JUMPDEST PUSH0 PUSH1 0x1F NOT PUSH1 0x1F DUP4 ADD AND SWAP1 POP SWAP2 SWAP1 POP JUMP JUMPDEST PUSH0 PUSH2 0xA96 DUP3 PUSH2 0xA3A JUMP JUMPDEST PUSH2 0xAA0 DUP2 DUP6 PUSH2 0xA44 JUMP JUMPDEST SWAP4 POP PUSH2 0xAB0 DUP2 DUP6 PUSH1 0x20 DUP7 ADD PUSH2 0xA54 JUMP JUMPDEST PUSH2 0xAB9 DUP2 PUSH2 0xA7C JUMP JUMPDEST DUP5 ADD SWAP2 POP POP SWAP3 SWAP2 POP POP JUMP JUMPDEST PUSH2 0xACD DUP2 PUSH2 0x987 JUMP JUMPDEST DUP3 MSTORE POP POP JUMP JUMPDEST PUSH0 PUSH1 0xA0 DUP3 ADD SWAP1 POP PUSH2 0xAE6 PUSH0 DUP4 ADD DUP9 PUSH2 0xA2B JUMP JUMPDEST DUP2 DUP2 SUB PUSH1 0x20 DUP4 ADD MSTORE PUSH2 0xAF8 DUP2 DUP8 PUSH2 0xA8C JUMP JUMPDEST SWAP1 POP PUSH2 0xB07 PUSH1 0x40 DUP4 ADD DUP7 PUSH2 0xAC4 JUMP JUMPDEST PUSH2 0xB14 PUSH1 0x60 DUP4 ADD DUP6 PUSH2 0xA2B JUMP JUMPDEST DUP2 DUP2 SUB PUSH1 0x80 DUP4 ADD MSTORE PUSH2 0xB26 DUP2 DUP5 PUSH2 0xA8C JUMP JUMPDEST SWAP1 POP SWAP7 SWAP6 POP POP POP POP POP POP JUMP JUMPDEST PUSH0 PUSH1 0x20 DUP3 ADD SWAP1 POP PUSH2 0xB45 PUSH0 DUP4 ADD DUP5 PUSH2 0xAC4 JUMP JUMPDEST SWAP3 SWAP2 POP POP JUMP JUMPDEST PUSH0 DUP1 REVERT JUMPDEST PUSH0 DUP1 REVERT JUMPDEST PUSH32 0x4E487B7100000000000000000000000000000000000000000000000000000000 PUSH0 MSTORE PUSH1 0x41 PUSH1 0x4 MSTORE PUSH1 0x24 PUSH0 REVERT JUMPDEST PUSH2 0xB89 DUP3 PUSH2 0xA7C JUMP JUMPDEST DUP2 ADD DUP2 DUP2 LT PUSH8 0xFFFFFFFFFFFFFFFF DUP3 GT OR ISZERO PUSH2 0xBA8 JUMPI PUSH2 0xBA7 PUSH2 0xB53 JUMP JUMPDEST JUMPDEST DUP1 PUSH1 0x40 MSTORE POP POP POP JUMP JUMPDEST PUSH0 PUSH2 0xBBA PUSH2 0x924 JUMP JUMPDEST SWAP1 POP PUSH2 0xBC6 DUP3 DUP3 PUSH2 0xB80 JUMP JUMPDEST SWAP2 SWAP1 POP JUMP JUMPDEST PUSH0 PUSH8 0xFFFFFFFFFFFFFFFF DUP3 GT ISZERO PUSH2 0xBE5 JUMPI PUSH2 0xBE4 PUSH2 0xB53 JUMP JUMPDEST JUMPDEST PUSH2 0xBEE DUP3 PUSH2 0xA7C JUMP JUMPDEST SWAP1 POP PUSH1 0x20 DUP2 ADD SWAP1 POP SWAP2 SWAP1 POP JUMP JUMPDEST DUP3 DUP2 DUP4 CALLDATACOPY PUSH0 DUP4 DUP4 ADD MSTORE POP POP POP JUMP JUMPDEST PUSH0 PUSH2 0xC1B PUSH2 0xC16 DUP5 PUSH2 0xBCB JUMP JUMPDEST PUSH2 0xBB1 JUMP JUMPDEST SWAP1 POP DUP3 DUP2 MSTORE PUSH1 0x20 DUP2 ADD DUP5 DUP5 DUP5 ADD GT ISZERO PUSH2 0xC37 JUMPI PUSH2 0xC36 PUSH2 0xB4F JUMP JUMPDEST JUMPDEST PUSH2 0xC42 DUP5 DUP3 DUP6 PUSH2 0xBFB JUMP JUMPDEST POP SWAP4 SWAP3 POP POP POP JUMP JUMPDEST PUSH0 DUP3 PUSH1 0x1F DUP4 ADD SLT PUSH2 0xC5E JUMPI PUSH2 0xC5D PUSH2 0xB4B JUMP JUMPDEST JUMPDEST DUP2 CALLDATALOAD PUSH2 0xC6E DUP5 DUP3 PUSH1 0x20 DUP7 ADD PUSH2 0xC09 JUMP JUMPDEST SWAP2 POP POP SWAP3 SWAP2 POP POP JUMP JUMPDEST PUSH0 DUP1 PUSH0 DUP1 PUSH1 0x80 DUP6 DUP8 SUB SLT ISZERO PUSH2 0xC8F JUMPI PUSH2 0xC8E PUSH2 0x92D JUMP JUMPDEST JUMPDEST PUSH0 PUSH2 0xC9C DUP8 DUP3 DUP9 ADD PUSH2 0x954 JUMP JUMPDEST SWAP5 POP POP PUSH1 0x20 DUP6 ADD CALLDATALOAD PUSH8 0xFFFFFFFFFFFFFFFF DUP2 GT ISZERO PUSH2 0xCBD JUMPI PUSH2 0xCBC PUSH2 0x931 JUMP JUMPDEST JUMPDEST PUSH2 0xCC9 DUP8 DUP3 DUP9 ADD PUSH2 0xC4A JUMP JUMPDEST SWAP4 POP POP PUSH1 0x40 PUSH2 0xCDA DUP8 DUP3 DUP9 ADD PUSH2 0x954 JUMP JUMPDEST SWAP3 POP POP PUSH1 0x60 DUP6 ADD CALLDATALOAD PUSH8 0xFFFFFFFFFFFFFFFF DUP2 GT ISZERO PUSH2 0xCFB JUMPI PUSH2 0xCFA PUSH2 0x931 JUMP JUMPDEST JUMPDEST PUSH2 0xD07 DUP8 DUP3 DUP9 ADD PUSH2 0xC4A JUMP JUMPDEST SWAP2 POP POP SWAP3 SWAP6 SWAP2 SWAP5 POP SWAP3 POP JUMP JUMPDEST PUSH0 PUSH1 0x20 DUP3 DUP5 SUB SLT ISZERO PUSH2 0xD28 JUMPI PUSH2 0xD27 PUSH2 0x92D JUMP JUMPDEST JUMPDEST PUSH0 PUSH2 0xD35 DUP5 DUP3 DUP6 ADD PUSH2 0x9AE JUMP JUMPDEST SWAP2 POP POP SWAP3 SWAP2 POP POP JUMP JUMPDEST PUSH32 0x50726F6475637420646F6573206E6F7420657869737400000000000000000000 PUSH0 DUP3 ADD MSTORE POP JUMP JUMPDEST PUSH0 PUSH2 0xD72 PUSH1 0x16 DUP4 PUSH2 0xA44 JUMP JUMPDEST SWAP2 POP PUSH2 0xD7D DUP3 PUSH2 0xD3E JUMP JUMPDEST PUSH1 0x20 DUP3 ADD SWAP1 POP SWAP2 SWAP1 POP JUMP JUMPDEST PUSH0 PUSH1 0x20 DUP3 ADD SWAP1 POP DUP2 DUP2 SUB PUSH0 DUP4 ADD MSTORE PUSH2 0xD9F DUP2 PUSH2 0xD66 JUMP JUMPDEST SWAP1 POP SWAP2 SWAP1 POP JUMP JUMPDEST PUSH32 0x4F6E6C79207468652070726F64756374206F776E65722063616E2073656C6C20 PUSH0 DUP3 ADD MSTORE PUSH32 0x7468652070726F64756374000000000000000000000000000000000000000000 PUSH1 0x20 DUP3 ADD MSTORE POP JUMP JUMPDEST PUSH0 PUSH2 0xE00 PUSH1 0x2B DUP4 PUSH2 0xA44 JUMP JUMPDEST SWAP2 POP PUSH2 0xE0B DUP3 PUSH2 0xDA6 JUMP JUMPDEST PUSH1 0x40 DUP3 ADD SWAP1 POP SWAP2 SWAP1 POP JUMP JUMPDEST PUSH0 PUSH1 0x20 DUP3 ADD SWAP1 POP DUP2 DUP2 SUB PUSH0 DUP4 ADD MSTORE PUSH2 0xE2D DUP2 PUSH2 0xDF4 JUMP JUMPDEST SWAP1 POP SWAP2 SWAP1 POP JUMP JUMPDEST PUSH32 0x42757965722073686F756C64206E6F74206265207468652063757272656E7420 PUSH0 DUP3 ADD MSTORE PUSH32 0x6F776E6572000000000000000000000000000000000000000000000000000000 PUSH1 0x20 DUP3 ADD MSTORE POP JUMP JUMPDEST PUSH0 PUSH2 0xE8E PUSH1 0x25 DUP4 PUSH2 0xA44 JUMP JUMPDEST SWAP2 POP PUSH2 0xE99 DUP3 PUSH2 0xE34 JUMP JUMPDEST PUSH1 0x40 DUP3 ADD SWAP1 POP SWAP2 SWAP1 POP JUMP JUMPDEST PUSH0 PUSH1 0x20 DUP3 ADD SWAP1 POP DUP2 DUP2 SUB PUSH0 DUP4 ADD MSTORE PUSH2 0xEBB DUP2 PUSH2 0xE82 JUMP JUMPDEST SWAP1 POP SWAP2 SWAP1 POP JUMP JUMPDEST PUSH0 PUSH1 0x20 DUP3 ADD SWAP1 POP PUSH2 0xED5 PUSH0 DUP4 ADD DUP5 PUSH2 0xA2B JUMP JUMPDEST SWAP3 SWAP2 POP POP JUMP JUMPDEST PUSH0 DUP2 ISZERO ISZERO SWAP1 POP SWAP2 SWAP1 POP JUMP JUMPDEST PUSH2 0xEEF DUP2 PUSH2 0xEDB JUMP JUMPDEST DUP2 EQ PUSH2 0xEF9 JUMPI PUSH0 DUP1 REVERT JUMPDEST POP JUMP JUMPDEST PUSH0 DUP2 MLOAD SWAP1 POP PUSH2 0xF0A DUP2 PUSH2 0xEE6 JUMP JUMPDEST SWAP3 SWAP2 POP POP JUMP JUMPDEST PUSH0 PUSH1 0x20 DUP3 DUP5 SUB SLT ISZERO PUSH2 0xF25 JUMPI PUSH2 0xF24 PUSH2 0x92D JUMP JUMPDEST JUMPDEST PUSH0 PUSH2 0xF32 DUP5 DUP3 DUP6 ADD PUSH2 0xEFC JUMP JUMPDEST SWAP2 POP POP SWAP3 SWAP2 POP POP JUMP JUMPDEST PUSH32 0x50726F64756374206973206E6F74207665726966696564000000000000000000 PUSH0 DUP3 ADD MSTORE POP JUMP JUMPDEST PUSH0 PUSH2 0xF6F PUSH1 0x17 DUP4 PUSH2 0xA44 JUMP JUMPDEST SWAP2 POP PUSH2 0xF7A DUP3 PUSH2 0xF3B JUMP JUMPDEST PUSH1 0x20 DUP3 ADD SWAP1 POP SWAP2 SWAP1 POP JUMP JUMPDEST PUSH0 PUSH1 0x20 DUP3 ADD SWAP1 POP DUP2 DUP2 SUB PUSH0 DUP4 ADD MSTORE PUSH2 0xF9C DUP2 PUSH2 0xF63 JUMP JUMPDEST SWAP1 POP SWAP2 SWAP1 POP JUMP JUMPDEST PUSH0 PUSH1 0x40 DUP3 ADD SWAP1 POP PUSH2 0xFB6 PUSH0 DUP4 ADD DUP6 PUSH2 0xA2B JUMP JUMPDEST PUSH2 0xFC3 PUSH1 0x20 DUP4 ADD DUP5 PUSH2 0xAC4 JUMP JUMPDEST SWAP4 SWAP3 POP POP POP JUMP JUMPDEST PUSH32 0x4E487B7100000000000000000000000000000000000000000000000000000000 PUSH0 MSTORE PUSH1 0x22 PUSH1 0x4 MSTORE PUSH1 0x24 PUSH0 REVERT JUMPDEST PUSH0 PUSH1 0x2 DUP3 DIV SWAP1 POP PUSH1 0x1 DUP3 AND DUP1 PUSH2 0x100E JUMPI PUSH1 0x7F DUP3 AND SWAP2 POP JUMPDEST PUSH1 0x20 DUP3 LT DUP2 SUB PUSH2 0x1021 JUMPI PUSH2 0x1020 PUSH2 0xFCA JUMP JUMPDEST JUMPDEST POP SWAP2 SWAP1 POP JUMP JUMPDEST PUSH32 0x50726F6475637420616C72656164792065786973747300000000000000000000 PUSH0 DUP3 ADD MSTORE POP JUMP JUMPDEST PUSH0 PUSH2 0x105B PUSH1 0x16 DUP4 PUSH2 0xA44 JUMP JUMPDEST SWAP2 POP PUSH2 0x1066 DUP3 PUSH2 0x1027 JUMP JUMPDEST PUSH1 0x20 DUP3 ADD SWAP1 POP SWAP2 SWAP1 POP JUMP JUMPDEST PUSH0 PUSH1 0x20 DUP3 ADD SWAP1 POP DUP2 DUP2 SUB PUSH0 DUP4 ADD MSTORE PUSH2 0x1088 DUP2 PUSH2 0x104F JUMP JUMPDEST SWAP1 POP SWAP2 SWAP1 POP JUMP JUMPDEST PUSH0 DUP2 SWAP1 POP DUP2 PUSH0 MSTORE PUSH1 0x20 PUSH0 KECCAK256 SWAP1 POP SWAP2 SWAP1 POP JUMP JUMPDEST PUSH0 PUSH1 0x20 PUSH1 0x1F DUP4 ADD DIV SWAP1 POP SWAP2 SWAP1 POP JUMP JUMPDEST PUSH0 DUP3 DUP3 SHL SWAP1 POP SWAP3 SWAP2 POP POP JUMP JUMPDEST PUSH0 PUSH1 0x8 DUP4 MUL PUSH2 0x10EB PUSH32 0xFFFFFFFFFFFFFFFFFFFFFFFFFFFFFFFFFFFFFFFFFFFFFFFFFFFFFFFFFFFFFFFF DUP3 PUSH2 0x10B0 JUMP JUMPDEST PUSH2 0x10F5 DUP7 DUP4 PUSH2 0x10B0 JUMP JUMPDEST SWAP6 POP DUP1 NOT DUP5 AND SWAP4 POP DUP1 DUP7 AND DUP5 OR SWAP3 POP POP POP SWAP4 SWAP3 POP POP POP JUMP JUMPDEST PUSH0 DUP2 SWAP1 POP SWAP2 SWAP1 POP JUMP JUMPDEST PUSH0 PUSH2 0x1130 PUSH2 0x112B PUSH2 0x1126 DUP5 PUSH2 0x935 JUMP JUMPDEST PUSH2 0x110D JUMP JUMPDEST PUSH2 0x935 JUMP JUMPDEST SWAP1 POP SWAP2 SWAP1 POP JUMP JUMPDEST PUSH0 DUP2 SWAP1 POP SWAP2 SWAP1 POP JUMP JUMPDEST PUSH2 0x1149 DUP4 PUSH2 0x1116 JUMP JUMPDEST PUSH2 0x115D PUSH2 0x1155 DUP3 PUSH2 0x1137 JUMP JUMPDEST DUP5 DUP5 SLOAD PUSH2 0x10BC JUMP JUMPDEST DUP3 SSTORE POP POP POP POP JUMP JUMPDEST PUSH0 SWAP1 JUMP JUMPDEST PUSH2 0x1171 PUSH2 0x1165 JUMP JUMPDEST PUSH2 0x117C DUP2 DUP5 DUP5 PUSH2 0x1140 JUMP JUMPDEST POP POP POP JUMP JUMPDEST JUMPDEST DUP2 DUP2 LT ISZERO PUSH2 0x119F JUMPI PUSH2 0x1194 PUSH0 DUP3 PUSH2 0x1169 JUMP JUMPDEST PUSH1 0x1 DUP2 ADD SWAP1 POP PUSH2 0x1182 JUMP JUMPDEST POP POP JUMP JUMPDEST PUSH1 0x1F DUP3 GT ISZERO PUSH2 0x11E4 JUMPI PUSH2 0x11B5 DUP2 PUSH2 0x108F JUMP JUMPDEST PUSH2 0x11BE DUP5 PUSH2 0x10A1 JUMP JUMPDEST DUP2 ADD PUSH1 0x20 DUP6 LT ISZERO PUSH2 0x11CD JUMPI DUP2 SWAP1 POP JUMPDEST PUSH2 0x11E1 PUSH2 0x11D9 DUP6 PUSH2 0x10A1 JUMP JUMPDEST DUP4 ADD DUP3 PUSH2 0x1181 JUMP JUMPDEST POP POP JUMPDEST POP POP POP JUMP JUMPDEST PUSH0 DUP3 DUP3 SHR SWAP1 POP SWAP3 SWAP2 POP POP JUMP JUMPDEST PUSH0 PUSH2 0x1204 PUSH0 NOT DUP5 PUSH1 0x8 MUL PUSH2 0x11E9 JUMP JUMPDEST NOT DUP1 DUP4 AND SWAP2 POP POP SWAP3 SWAP2 POP POP JUMP JUMPDEST PUSH0 PUSH2 0x121C DUP4 DUP4 PUSH2 0x11F5 JUMP JUMPDEST SWAP2 POP DUP3 PUSH1 0x2 MUL DUP3 OR SWAP1 POP SWAP3 SWAP2 POP POP JUMP JUMPDEST PUSH2 0x1235 DUP3 PUSH2 0xA3A JUMP JUMPDEST PUSH8 0xFFFFFFFFFFFFFFFF DUP2 GT ISZERO PUSH2 0x124E JUMPI PUSH2 0x124D PUSH2 0xB53 JUMP JUMPDEST JUMPDEST PUSH2 0x1258 DUP3 SLOAD PUSH2 0xFF7 JUMP JUMPDEST PUSH2 0x1263 DUP3 DUP3 DUP6 PUSH2 0x11A3 JUMP JUMPDEST PUSH0 PUSH1 0x20 SWAP1 POP PUSH1 0x1F DUP4 GT PUSH1 0x1 DUP2 EQ PUSH2 0x1294 JUMPI PUSH0 DUP5 ISZERO PUSH2 0x1282 JUMPI DUP3 DUP8 ADD MLOAD SWAP1 POP JUMPDEST PUSH2 0x128C DUP6 DUP3 PUSH2 0x1211 JUMP JUMPDEST DUP7 SSTORE POP PUSH2 0x12F3 JUMP JUMPDEST PUSH1 0x1F NOT DUP5 AND PUSH2 0x12A2 DUP7 PUSH2 0x108F JUMP JUMPDEST PUSH0 JUMPDEST DUP3 DUP2 LT ISZERO PUSH2 0x12C9 JUMPI DUP5 DUP10 ADD MLOAD DUP3 SSTORE PUSH1 0x1 DUP3 ADD SWAP2 POP PUSH1 0x20 DUP6 ADD SWAP5 POP PUSH1 0x20 DUP2 ADD SWAP1 POP PUSH2 0x12A4 JUMP JUMPDEST DUP7 DUP4 LT ISZERO PUSH2 0x12E6 JUMPI DUP5 DUP10 ADD MLOAD PUSH2 0x12E2 PUSH1 0x1F DUP10 AND DUP3 PUSH2 0x11F5 JUMP JUMPDEST DUP4 SSTORE POP JUMPDEST PUSH1 0x1 PUSH1 0x2 DUP9 MUL ADD DUP9 SSTORE POP POP POP JUMPDEST POP POP POP POP POP POP JUMP JUMPDEST PUSH0 PUSH1 0x60 DUP3 ADD SWAP1 POP PUSH2 0x130E PUSH0 DUP4 ADD DUP7 PUSH2 0xA2B JUMP JUMPDEST DUP2 DUP2 SUB PUSH1 0x20 DUP4 ADD MSTORE PUSH2 0x1320 DUP2 DUP6 PUSH2 0xA8C JUMP JUMPDEST SWAP1 POP PUSH2 0x132F PUSH1 0x40 DUP4 ADD DUP5 PUSH2 0xAC4 JUMP JUMPDEST SWAP5 SWAP4 POP POP POP POP JUMP INVALID LOG2 PUSH5 0x6970667358 0x22 SLT KECCAK256 TLOAD 0xE PUSH13 0xBFB6034841C9495739CAD7A1F PUSH12 0x37FA4F66C1E49D1CD70B0615 0xC0 DUP16 ORIGIN PUSH5 0x736F6C6343 STOP ADDMOD XOR STOP CALLER "
				},
				"gasEstimates": {
					"creation": {
						"codeDepositCost": "994600",
						"executionCost": "infinite",
						"totalCost": "infinite"
					},
					"external": {
						"createProduct(uint256,string,uint256,string)": "infinite",
						"owner()": "2515",
						"products(uint256)": "infinite",
						"registryAddress()": "2552",
						"renounceOwnership()": "infinite",
						"sellProduct(uint256,address)": "infinite",
						"transferOwnership(address)": "infinite"
					}
				},
				"methodIdentifiers": {
					"createProduct(uint256,string,uint256,string)": "c7595594",
					"owner()": "8da5cb5b",
					"products(uint256)": "7acc0b20",
					"registryAddress()": "ed9aab51",
					"renounceOwnership()": "715018a6",
					"sellProduct(uint256,address)": "0b569140",
					"transferOwnership(address)": "f2fde38b"
				}
			},
			"storageLayout": {
				"storage": [
					{
						"astId": 8,
						"contract": "contracts/ProductSupplyChain.sol:ProductSupplyChain",
						"label": "_owner",
						"offset": 0,
						"slot": "0",
						"type": "t_address"
					},
					{
						"astId": 201,
						"contract": "contracts/ProductSupplyChain.sol:ProductSupplyChain",
						"label": "products",
						"offset": 0,
						"slot": "1",
						"type": "t_mapping(t_uint256,t_struct(Product)196_storage)"
					},
					{
						"astId": 266,
						"contract": "contracts/ProductSupplyChain.sol:ProductSupplyChain",
						"label": "registryAddress",
						"offset": 0,
						"slot": "2",
						"type": "t_address"
					}
				],
				"types": {
					"t_address": {
						"encoding": "inplace",
						"label": "address",
						"numberOfBytes": "20"
					},
					"t_mapping(t_uint256,t_struct(Product)196_storage)": {
						"encoding": "mapping",
						"key": "t_uint256",
						"label": "mapping(uint256 => struct ProductSupplyChain.Product)",
						"numberOfBytes": "32",
						"value": "t_struct(Product)196_storage"
					},
					"t_string_storage": {
						"encoding": "bytes",
						"label": "string",
						"numberOfBytes": "32"
					},
					"t_struct(Product)196_storage": {
						"encoding": "inplace",
						"label": "struct ProductSupplyChain.Product",
						"members": [
							{
								"astId": 187,
								"contract": "contracts/ProductSupplyChain.sol:ProductSupplyChain",
								"label": "productId",
								"offset": 0,
								"slot": "0",
								"type": "t_uint256"
							},
							{
								"astId": 189,
								"contract": "contracts/ProductSupplyChain.sol:ProductSupplyChain",
								"label": "name",
								"offset": 0,
								"slot": "1",
								"type": "t_string_storage"
							},
							{
								"astId": 191,
								"contract": "contracts/ProductSupplyChain.sol:ProductSupplyChain",
								"label": "currentOwner",
								"offset": 0,
								"slot": "2",
								"type": "t_address"
							},
							{
								"astId": 193,
								"contract": "contracts/ProductSupplyChain.sol:ProductSupplyChain",
								"label": "price",
								"offset": 0,
								"slot": "3",
								"type": "t_uint256"
							},
							{
								"astId": 195,
								"contract": "contracts/ProductSupplyChain.sol:ProductSupplyChain",
								"label": "state",
								"offset": 0,
								"slot": "4",
								"type": "t_string_storage"
							}
						],
						"numberOfBytes": "160"
					},
					"t_uint256": {
						"encoding": "inplace",
						"label": "uint256",
						"numberOfBytes": "32"
					}
				}
			},
			"userdoc": {
				"kind": "user",
				"methods": {},
				"version": 1
			}
		}
	}
}